:020000040000FA
:100000000C945D000C9485000C9485000C94850084
:100010000C9485000C9485000C9485000C9485004C
:100020000C9485000C9485000C9485000C9485003C
:100030000C9485000C9485000C9485000C9485002C
:100040000C94EA040C9485000C945A050C94340525
:100050000C9485000C9485000C9485000C9485000C
:100060000C9485000C94850000000008000201003B
:100070000003040700000000000000000000000072
:10008000250028002B0000000000240027002A0083
:10009000040404040404040402020202020203032E
:1000A0000303030301020408102040800102040836
:1000B00010200102040810208C0511241FBECFEF70
:1000C000D8E0DEBFCDBF11E0A0E0B1E0E2E5F4E1B1
:1000D00002C005900D92AE35B107D9F722E0AEE52A
:1000E000B1E001C01D92AC32B207E1F710E0CDE5FE
:1000F000D0E004C02197FE010E94210ACC35D1072F
:10010000C9F70E94D6050C94270A0C94000090E0D1
:10011000FC01EC55FF4F249180579F4FFC018491C7
:10012000882399F090E0880F991FFC01EA57FF4F50
:10013000A591B491FC01E458FF4F859194918FB73C
:10014000F894EC91E22BEC938FBF089590E0FC01C2
:10015000E859FF4F2491FC01EC55FF4F3491FC010D
:10016000E057FF4FE491EE23C9F0222339F023300A
:1001700001F1A8F4213019F1223029F1F0E0EE0F5D
:10018000FF1FE458FF4FA591B4918FB7F894EC91FD
:10019000611126C030953E233C938FBF08952730D0
:1001A000A9F02830C9F0243049F7809180008F7D74
:1001B00003C0809180008F7780938000DFCF84B56B
:1001C0008F7784BDDBCF84B58F7DFBCF8091B0006E
:1001D0008F778093B000D2CF8091B0008F7DF9CF20
:1001E0003E2BDACF3FB7F894809173019091740160
:1001F000A0917501B091760126B5A89B05C02F3F4F
:1002000019F00196A11DB11D3FBFBA2FA92F982F3C
:100210008827BC01CD01620F711D811D911D42E037
:10022000660F771F881F991F4A95D1F708958F92FF
:100230009F92AF92BF92CF92DF92EF92FF924B01CB
:100240005C010E94F2006B017C010E94F2006C19BB
:100250007D098E099F09683E734081059105A8F3C9
:1002600021E0821A9108A108B10888EEC80E83E047
:10027000D81EE11CF11C81149104A104B10429F7DA
:10028000FF90EF90DF90CF90BF90AF909F908F90B6
:100290000895AF92BF92CF92DF92EF92FF920F93A9
:1002A0001F93CF93DF936C017B018B01040F151F0C
:1002B000EB015E01AE18BF08C017D10759F0699174
:1002C000D601ED91FC910190F081E02DC6010995D8
:1002D000892B79F7C501DF91CF911F910F91FF9085
:1002E000EF90DF90CF90BF90AF900895FC01538DB9
:1002F000448D252F30E0842F90E0821B930B541700
:1003000010F0CF96089501970895FC01918D828D8C
:10031000981761F0A28DAE0FBF2FB11D5D968C9125
:10032000928D9F5F9F73928F90E008958FEF9FEF64
:100330000895FC01918D828D981731F0828DE80F20
:10034000F11D858D90E008958FEF9FEF0895FC01DA
:10035000918D228D892F90E0805C9F4F821B9109A7
:100360008F739927089587E791E00E94A70121E004
:10037000892B09F420E0822F089580E090E0892BFA
:1003800029F00E94B30181110C9400000895FC0132
:10039000A48DA80FB92FB11DA35ABF4F2C91848DE6
:1003A00090E001968F739927848FA689B7892C9343
:1003B000A089B1898C91837080648C93938D848D96
:1003C000981306C00288F389E02D80818F7D808399
:1003D0000895EF92FF920F931F93CF93DF93EC0159
:1003E00081E0888F9B8D8C8D98131AC0E889F989DC
:1003F000808185FF15C09FB7F894EE89FF896083DF
:10040000E889F98980818370806480839FBF81E05F
:1004100090E0DF91CF911F910F91FF90EF900895A1
:10042000F62E0B8D10E00F5F1F4F0F731127E02E7C
:100430008C8D8E110CC00FB607FCFACFE889F989B4
:10044000808185FFF5CFCE010E94C701F1CFEB8DF2
:10045000EC0FFD2FF11DE35AFF4FF0829FB7F89488
:100460000B8FEA89FB8980818062CFCFCF93DF93A6
:10047000EC01888D8823B9F0AA89BB89E889F989BC
:100480008C9185FD03C0808186FD0DC00FB607FCF1
:10049000F7CF8C9185FFF2CF808185FFEDCFCE0124
:1004A0000E94C701E9CFDF91CF910895089590E0B0
:1004B00080E00895FB0101900020E9F73197AF013A
:1004C000461B570BDC01ED91FC910280F381E02D7E
:1004D00009948F929F92AF92BF92EF92FF920F93E7
:1004E0001F93CF93DF93CDB7DEB7A1970FB6F894E4
:1004F000DEBF0FBECDBF7C01FA01CB0119A22230B5
:1005000008F42AE08E010F5D1F4F822E912CB12C32
:10051000A12CBF01A50194010E94FF09F901CA01A4
:100520006A300CF5605DD8016E938D01232B242B6E
:10053000252B79F790E080E0109721F0BD01C701ED
:100540000E945A02A1960FB6F894DEBF0FBECDBF2F
:10055000DF91CF911F910F91FF90EF90BF90AF90DF
:100560009F908F900895695CDECF2F923F924F92BB
:100570005F926F927F928F929F92AF92BF92CF9233
:10058000DF92EF92FF921F93CF93DF93EC016A010A
:100590007B01722EAB019601CB01B6010E94FA09D4
:1005A0006FE171E0811126C046015701E894B7F868
:1005B0002FEF3FEF4FE75FE7C501B4010E94FA0953
:1005C00081110CC02FEF3FEF4FE75FE7C501B4018A
:1005D0000E94300863E271E0181664F02FEF3FEFDD
:1005E0004FE75FE4C701B6010E9488091816B4F40A
:1005F00067E271E0CE01DF91CF911F91FF90EF9004
:10060000DF90CF90BF90AF909F908F907F906F9032
:100610005F904F903F902F900C945A022FEF3FEF36
:100620004FE75FECC701B6010E94300887FDE0CFBD
:1006300020E030E0A901C701B6010E943008312C4A
:10064000212C87FF0DC0E881F9810190F081E02D18
:100650006DE2CE0109951C01F7FAF094F7F8F094D9
:1006600010E060E070E080E09FE3711641F020E070
:1006700030E040E251E40E9435081F5FF6CFA70149
:1006800096010E94C4072B013C010E94A7084B0160
:100690005C012AE0BC01A401CE010E9469027C0138
:1006A000E20CF31C1123E1F1C501B4010E94D6084C
:1006B0009B01AC01C301B2010E94C3074B015C0165
:1006C000E881F9810190F081E02D6EE2CE0109957B
:1006D000E80EF91E115020F120E030E040E251E434
:1006E000C501B4010E948D092B013C010E94A7089D
:1006F0004B01B12CA12C2AE0B501A401CE010E942E
:100700006902E80EF91EC501B4010E94D6089B01DA
:10071000AC01C301B2010E94C3074B015C01DACFF7
:10072000C701DF91CF911F91FF90EF90DF90CF90A5
:10073000BF90AF909F908F907F906F905F904F9001
:100740003F902F900895CF93DF93EC0160E08E816E
:100750000E94A60061E08E810E94A60060E08E816A
:100760000E94A6008BE891E00197F1F7DF91CF910D
:100770000895CF92DF92EF92FF920F931F93CF9342
:10078000DF936C017C0187E0E80EF11CD0E0C0E053
:10079000062F10E0B8010C2E02C0759567950A94DB
:1007A000E2F76170F70181917F010E94A600219616
:1007B000C430D10579F7C601DF91CF911F910F9118
:1007C000FF90EF90DF90CF900C94A303CF92DF9235
:1007D000EF92FF920F931F93CF93DF93EC01F62ECE
:1007E000642F8C810E94A6008D818F3F19F060E0FC
:1007F0000E94A6000F2D10E08F8584FF25C06E019A
:1008000087E0C80ED11CF12CE12CB8010E2C02C0DF
:10081000759567950A94E2F76170F60181916F0111
:100820000E94A600FFEFEF1AFF0A88E0E816F10425
:1008300061F7CE01DF91CF911F910F91FF90EF9063
:10084000DF90CF900C94A303B80184E07595679571
:100850008A95E1F7CE010E94B9036F2DCE01DF9199
:10086000CF911F910F91FF90EF90DF90CF900C945C
:10087000B90340E0682F84E192E00C94E60381E044
:100880000E9439048BE39FE10197F1F70895CF931C
:10089000DF93823029F49091230298609093230291
:1008A000809327021092280280E48093290280E13D
:1008B00080932A0280E580932B02809118020E9487
:1008C0008700809119028F3F11F00E94870080916C
:1008D0001A020E948700C4E1D2E09E0124513240F6
:1008E0008091230284FD0AC084E090E021962817BD
:1008F00039073CF48E810E948700EFCF88E090E0BA
:10090000F5CF8BE39DE00197F1F760E0809118024D
:100910000E94A60060E080911A020E94A6008091C9
:1009200019028F3F19F060E00E94A6008091230217
:1009300084FD34C063E084E192E00E94B903CBE41B
:10094000D6E4CE010197F1F763E084E192E00E94E2
:10095000B9032197F1F763E084E192E00E94B903C3
:1009600083E592E00197F1F762E084E192E00E9472
:10097000B9038091230280620E94390484E080934D
:1009800024028CE00E9439040E943F0482E080939C
:10099000250286E0DF91CF910C94390480620E9499
:1009A00039048BE496E40197F1F780912302806289
:1009B0000E94390483E592E00197F1F780912302C8
:1009C00080620E943904D5CF41E00E94E60381E0B5
:1009D00090E008951F920F920FB60F9211242F935B
:1009E0003F938F939F93AF93BF9380916F019091AB
:1009F0007001A0917101B091720130916E0123E0FC
:100A0000230F2D3758F50196A11DB11D20936E01BE
:100A100080936F0190937001A0937101B093720164
:100A20008091730190917401A0917501B09176014C
:100A30000196A11DB11D8093730190937401A09341
:100A40007501B0937601BF91AF919F918F913F91C6
:100A50002F910F900FBE0F901F90189526E8230F2F
:100A60000296A11DB11DD2CF1F920F920FB60F9209
:100A700011242F933F934F935F936F937F938F93A3
:100A80009F93AF93BF93EF93FF9387E791E00E940B
:100A9000C701FF91EF91BF91AF919F918F917F918E
:100AA0006F915F914F913F912F910F900FBE0F90DB
:100AB0001F9018951F920F920FB60F9211242F932B
:100AC0008F939F93EF93FF93E0918701F0918801BB
:100AD0008081E0918D01F0918E0182FD1BC090819B
:100AE000809190018F5F8F7320919101821741F067
:100AF000E0919001F0E0E958FE4F958F80939001CE
:100B0000FF91EF919F918F912F910F900FBE0F90BA
:100B10001F9018958081F4CFE7E7F1E013821282ED
:100B200088EE93E0A0E0B0E084839583A683B7834A
:100B300085E091E09183808385EC90E095878487C0
:100B400084EC90E09787868780EC90E0918B808B97
:100B500081EC90E0938B828B82EC90E0958B848B80
:100B600086EC90E0978B868B118E128E138E148EEE
:100B7000E4E1F2E01382128287E191E091838083C5
:100B80008CE084838FEF85838BE0868385E0878389
:100B900084E0808783E0818782E0828713861486E1
:100BA00015861686178681E00C944704789484B5E0
:100BB000826084BD84B5816084BD85B5826085BD59
:100BC00085B5816085BD80916E00816080936E00E7
:100BD00010928100809181008260809381008091D9
:100BE000810081608093810080918000816080938A
:100BF00080008091B10084608093B1008091B0004A
:100C000081608093B00080917A00846080937A0044
:100C100080917A00826080937A0080917A0081606E
:100C200080937A0080917A00806880937A00109295
:100C3000C10082E00E94470481E0809300016BE2E2
:100C400071E084E192E00E945A0260ED77E080E07A
:100C500090E00E9417010E943F04E0918701F0910B
:100C6000880182E08083E0918301F0918401108209
:100C7000E0918501F09186018FEC808310928F01C5
:100C8000E0918B01F0918C0186E08083E0918901F5
:100C9000F0918A01808180618083E0918901F091E7
:100CA0008A01808188608083E0918901F0918A01C6
:100CB000808180688083E0918901F0918A01808140
:100CC0008F7D8083C0E0D0E002E310E0C12CD12C06
:100CD00076018091000120E4829FC001112480935D
:100CE0007C0080917A00806480937A0080917A0001
:100CF00086FDFCCF8091780090917900092E000C40
:100D0000AA0BBB0BC80ED91EEA1EFB1E62E070E0E8
:100D100080E090E00E94170101501109D1F6C7014F
:100D2000B6010E94D80820E030E048E452E40E9476
:100D300035082AE038E240EA5BE30E948D092DEC99
:100D40003CEC4CEC5DE30E948D096B017C0126E6D6
:100D500036E646E65FE360916A0170916B0180912F
:100D60006C0190916D010E948D099B01AC01C7013E
:100D7000B6010E94C4076B017C01C0926A01D09247
:100D80006B01E0926C01F0926D01C0926601D0920D
:100D90006701E0926801F092690123EC3DED49E9B9
:100DA00054E40E948D099B01AC0164E176EA83E979
:100DB00094E40E94C3074B015C0122E538EF48E947
:100DC00053E4C701B6010E948D09A70196010E9454
:100DD0008D099B01AC01C501B4010E94C407609359
:100DE0006201709363018093640190936501209187
:100DF0005E0130915F0140916001509161010E945C
:100E0000C3076B017C0120E030E0A9010E94880942
:100E100018160CF04EC02DEC3CEC4CE45EE3C70120
:100E2000B6010E94880918160CF44DC066E471E002
:100E300087E791E00E945A02409166015091670154
:100E4000609168017091690123E087E791E00E9459
:100E5000B50260E571E087E791E00E945A02409197
:100E6000620150916301609164017091650122E01B
:100E700087E791E00E94B50263E471E087E791E0C3
:100E80000E945A026BE571E087E791E00E945A02E6
:100E900064EF71E080E090E00E941701209709F470
:100EA00013CF0E94B301882309F40ECF0E940000E3
:100EB0000BCF2DEC3CEC4CE45EEBC701B6010E947D
:100EC000300887FFB3CF0E943F04E1E08091270202
:100ED0008111E0E0E195F0E0EC5EFD4F84898068EF
:100EE0000E9439046AE371E084E192E00E945A02B0
:100EF00040916601509167016091680170916901AC
:100F000023E084E192E00E94B5026DE371E084E1A8
:100F100092E00E945A02E0912702E23090F5E150FF
:100F2000F0E0EC5EFD4F848980680E94390460E443
:100F300071E084E192E00E945A0240916201509176
:100F40006301609164017091650122E084E192E0A7
:100F50000E94B50263E471E084E192E00E945A02CB
:100F60008091620190916301A0916401B09165014B
:100F700080935E0190935F01A0936001B093610143
:100F800055CFE1E0CDCF5058BB27AA270E94DB0701
:100F90000C944E090E94400938F00E94470920F045
:100FA00039F49F3F19F426F40C943D090EF4E095B2
:100FB000E7FB0C943709E92F0E945F0958F3BA1731
:100FC000620773078407950720F079F4A6F50C945F
:100FD00081090EF4E0950B2EBA2FA02D0B01B9015B
:100FE00090010C01CA01A0011124FF27591B99F09F
:100FF000593F50F4503E68F11A16F040A22F232FAB
:10100000342F4427585FF3CF469537952795A795FA
:10101000F0405395C9F77EF41F16BA0B620B730BA1
:10102000840BBAF09150A1F0FF0FBB1F661F771F12
:10103000881FC2F70EC0BA0F621F731F841F48F4C7
:10104000879577956795B795F7959E3F08F0B0CF50
:101050009395880F08F09927EE0F97958795089537
:101060000E94130908F481E008950E9449080C9435
:101070004E090E94470958F00E94400940F029F4A7
:101080005F3F29F00C94370951110C9482090C949C
:101090003D090E945F0968F39923B1F3552391F349
:1010A000951B550BBB27AA2762177307840738F0D7
:1010B0009F5F5F4F220F331F441FAA1FA9F335D034
:1010C0000E2E3AF0E0E832D091505040E695001CE8
:1010D000CAF72BD0FE2F29D0660F771F881FBB1FA2
:1010E000261737074807AB07B0E809F0BB0B802D80
:1010F000BF01FF2793585F4F3AF09E3F510578F0AC
:101100000C9437090C9482095F3FE4F3983ED4F3C2
:10111000869577956795B795F7959F5FC9F7880F7F
:10112000911D9695879597F90895E1E0660F771FD1
:10113000881FBB1F621773078407BA0720F0621B62
:10114000730B840BBA0BEE1F88F7E09508950E948D
:10115000670988F09F5798F0B92F9927B751B0F0D9
:10116000E1F0660F771F881F991F1AF0BA95C9F72B
:1011700014C0B13091F00E948109B1E008950C943F
:101180008109672F782F8827B85F39F0B93FCCF3F2
:10119000869577956795B395D9F73EF490958095A8
:1011A000709561957F4F8F4F9F4F0895E89409C0C8
:1011B00097FB3EF490958095709561957F4F8F4F8A
:1011C0009F4F9923A9F0F92F96E9BB279395F695A0
:1011D000879577956795B795F111F8CFFAF4BB0F1E
:1011E00011F460FF1BC06F5F7F4F8F4F9F4F16C082
:1011F000882311F096E911C0772321F09EE8872F0C
:10120000762F05C0662371F096E8862F70E060E0C7
:101210002AF09A95660F771F881FDAF7880F969540
:10122000879597F90895990F0008550FAA0BE0E8E4
:10123000FEEF16161706E807F907C0F01216130698
:10124000E407F50798F0621B730B840B950B39F4D8
:101250000A2661F0232B242B252B21F408950A263E
:1012600009F4A140A6958FEF811D811D089597F97E
:101270009F6780E870E060E008959FEF80EC08953C
:1012800000240A9416161706180609060895002465
:101290000A9412161306140605060895092E0394DF
:1012A000000C11F4882352F0BB0F40F4BF2B11F453
:1012B00060FF04C06F5F7F4F8F4F9F4F089557FDB2
:1012C0009058440F551F59F05F3F71F04795880FB4
:1012D00097FB991F61F09F3F79F08795089512164B
:1012E00013061406551FF2CF4695F1DF08C01616F7
:1012F00017061806991FF1CF8695710561050894A8
:101300000895E894BB2766277727CB0197F90895BE
:101310000E94130908F48FEF08950E94A0090C940D
:101320004E090E94400938F00E94470920F0952399
:1013300011F00C9437090C943D0911240C94820986
:101340000E945F0970F3959FC1F3950F50E0551F00
:10135000629FF001729FBB27F00DB11D639FAA270A
:10136000F00DB11DAA1F649F6627B00DA11D661F59
:10137000829F2227B00DA11D621F739FB00DA11D7A
:10138000621F839FA00D611D221F749F3327A00D34
:10139000611D231F849F600D211D822F762F6A2FD0
:1013A00011249F5750409AF0F1F088234AF0EE0F35
:1013B000FF1FBB1F661F771F881F91505040A9F762
:1013C0009E3F510580F00C9437090C9482095F3FD1
:1013D000E4F3983ED4F3869577956795B795F7959E
:1013E000E7959F5FC1F7FE2B880F911D9695879516
:1013F00097F908950E941309880B990B0895A1E2AB
:101400001A2EAA1BBB1BFD010DC0AA1FBB1FEE1F7E
:10141000FF1FA217B307E407F50720F0A21BB30BC9
:10142000E40BF50B661F771F881F991F1A9469F745
:1014300060957095809590959B01AC01BD01CF01A1
:101440000895EE0FFF1F0590F491E02D0994F89494
:10145000FFCF0100000000E901490176013602A733
:10146000018501990100000000E40449015702567A
:10147000026E616E00696E66006F76660044696791
:101480006974616C20546865726D6F00563A002073
:101490005600543A00204300566F6C746167653AF9
:1014A000200020562C2054656D703A20000D0A0053
:107E0000112484B714BE81FFF0D085E080938100F7
:107E100082E08093C00088E18093C10086E0809377
:107E2000C20080E18093C4008EE0C9D0259A86E02C
:107E300020E33CEF91E0309385002093840096BBD3
:107E4000B09BFECF1D9AA8958150A9F7CC24DD24C4
:107E500088248394B5E0AB2EA1E19A2EF3E0BF2EE7
:107E6000A2D0813461F49FD0082FAFD0023811F036
:107E7000013811F484E001C083E08DD089C08234E0
:107E800011F484E103C0853419F485E0A6D080C0E4
:107E9000853579F488D0E82EFF2485D0082F10E0AE
:107EA000102F00270E291F29000F111F8ED06801E7
:107EB0006FC0863521F484E090D080E0DECF843638
:107EC00009F040C070D06FD0082F6DD080E0C81688
:107ED00080E7D80618F4F601B7BEE895C0E0D1E017
:107EE00062D089930C17E1F7F0E0CF16F0E7DF06D8
:107EF00018F0F601B7BEE89568D007B600FCFDCFD4
:107F0000A601A0E0B1E02C9130E011968C91119780
:107F100090E0982F8827822B932B1296FA010C0160
:107F200087BEE89511244E5F5F4FF1E0A038BF0790
:107F300051F7F601A7BEE89507B600FCFDCF97BE46
:107F4000E89526C08437B1F42ED02DD0F82E2BD052
:107F50003CD0F601EF2C8F010F5F1F4F84911BD097
:107F6000EA94F801C1F70894C11CD11CFA94CF0C13
:107F7000D11C0EC0853739F428D08EE10CD085E9AC
:107F80000AD08FE07ACF813511F488E018D01DD067
:107F900080E101D065CF982F8091C00085FFFCCF94
:107FA0009093C60008958091C00087FFFCCF809118
:107FB000C00084FD01C0A8958091C6000895E0E648
:107FC000F0E098E1908380830895EDDF803219F02E
:107FD00088E0F5DFFFCF84E1DECF1F93182FE3DFCA
:107FE0001150E9F7F2DF1F91089580E0E8DFEE27F6
:047FF000FF270994CA
:027FFE00040479
:00000001FF
