:100000000C945D000C9485000C9485000C94850084
:100010000C9485000C9485000C9485000C9485004C
:100020000C9485000C9485000C9485000C9485003C
:100030000C9485000C9485000C9485000C9485002C
:100040000C94E7040C9485000C9457050C9431052E
:100050000C9485000C9485000C9485000C9485000C
:100060000C9485000C94850000000008000201003B
:100070000003040700000000000000000000000072
:10008000250028002B0000000000240027002A0083
:10009000040404040404040402020202020203032E
:1000A0000303030301020408102040800102040836
:1000B0001020010204081020890511241FBECFEF73
:1000C000D8E0DEBFCDBF11E0A0E0B1E0ECE1F3E1AC
:1000D00002C005900D92AC35B107D9F722E0ACE52E
:1000E000B1E001C01D92AA31B207E1F710E0CDE501
:1000F000D0E004C02197FE010E944A07CC35D10709
:10010000C9F70E94D3050C948C090C94000090E070
:10011000FC01EC55FF4F249180579F4FFC018491C7
:10012000882399F090E0880F991FFC01EA57FF4F50
:10013000A591B491FC01E458FF4F859194918FB73C
:10014000F894EC91E22BEC938FBF089590E0FC01C2
:10015000E859FF4F2491FC01EC55FF4F3491FC010D
:10016000E057FF4FE491EE23C9F0222339F023300A
:1001700001F1A8F4213019F1223029F1F0E0EE0F5D
:10018000FF1FE458FF4FA591B4918FB7F894EC91FD
:10019000611126C030953E233C938FBF08952730D0
:1001A000A9F02830C9F0243049F7809180008F7D74
:1001B00003C0809180008F7780938000DFCF84B56B
:1001C0008F7784BDDBCF84B58F7DFBCF8091B0006E
:1001D0008F778093B000D2CF8091B0008F7DF9CF20
:1001E0003E2BDACF3FB7F894809161019091620184
:1001F000A0916301B091640126B5A89B05C02F3F73
:1002000019F00196A11DB11D3FBFBA2FA92F982F3C
:100210008827BC01CD01620F711D811D911D42E037
:10022000660F771F881F991F4A95D1F708958F92FF
:100230009F92AF92BF92CF92DF92EF92FF924B01CB
:100240005C010E94F2006B017C010E94F2006C19BB
:100250007D098E099F09683E734081059105A8F3C9
:1002600021E0821A9108A108B10888EEC80E83E047
:10027000D81EE11CF11C81149104A104B10429F7DA
:10028000FF90EF90DF90CF90BF90AF909F908F90B6
:100290000895AF92BF92CF92DF92EF92FF920F93A9
:1002A0001F93CF93DF936C017B018B01040F151F0C
:1002B000EB015E01AE18BF08C017D10759F0699174
:1002C000D601ED91FC910190F081E02DC6010995D8
:1002D000892B79F7C501DF91CF911F910F91FF9085
:1002E000EF90DF90CF90BF90AF900895FC01538DB9
:1002F000448D252F30E0842F90E0821B930B541700
:1003000010F0CF96089501970895FC01918D828D8C
:10031000981761F0A28DAE0FBF2FB11D5D968C9125
:10032000928D9F5F9F73928F90E008958FEF9FEF64
:100330000895FC01918D828D981731F0828DE80F20
:10034000F11D858D90E008958FEF9FEF0895FC01DA
:10035000918D228D892F90E0805C9F4F821B9109A7
:100360008F739927089585E691E00E94A70121E007
:10037000892B09F420E0822F089580E090E0892BFA
:1003800029F00E94B30181110C9400000895FC0132
:10039000A48DA80FB92FB11DA35ABF4F2C91848DE6
:1003A00090E001968F739927848FA689B7892C9343
:1003B000A089B1898C91837080648C93938D848D96
:1003C000981306C00288F389E02D80818F7D808399
:1003D0000895EF92FF920F931F93CF93DF93EC0159
:1003E00081E0888F9B8D8C8D98131AC0E889F989DC
:1003F000808185FF15C09FB7F894EE89FF896083DF
:10040000E889F98980818370806480839FBF81E05F
:1004100090E0DF91CF911F910F91FF90EF900895A1
:10042000F62E0B8D10E00F5F1F4F0F731127E02E7C
:100430008C8D8E110CC00FB607FCFACFE889F989B4
:10044000808185FFF5CFCE010E94C701F1CFEB8DF2
:10045000EC0FFD2FF11DE35AFF4FF0829FB7F89488
:100460000B8FEA89FB8980818062CFCFCF93DF93A6
:10047000EC01888D8823B9F0AA89BB89E889F989BC
:100480008C9185FD03C0808186FD0DC00FB607FCF1
:10049000F7CF8C9185FFF2CF808185FFEDCFCE0124
:1004A0000E94C701E9CFDF91CF910895089590E0B0
:1004B00080E00895FB0101900020E9F73197AF013A
:1004C000461B570BDC01ED91FC910280F381E02D7E
:1004D00009948F929F92AF92BF92EF92FF920F93E7
:1004E0001F93CF93DF93CDB7DEB7A1970FB6F894E4
:1004F000DEBF0FBECDBF7C01FA01CB0119A22230B5
:1005000008F42AE08E010F5D1F4F822E912CB12C32
:10051000A12CBF01A50194010E942807F901CA017D
:100520006A300CF5605DD8016E938D01232B242B6E
:10053000252B79F790E080E0109721F0BD01C701ED
:100540000E945A02A1960FB6F894DEBF0FBECDBF2F
:10055000DF91CF911F910F91FF90EF90BF90AF90DF
:100560009F908F900895695CDECF2F923F924F92BB
:100570005F926F927F928F929F92AF92BF92CF9233
:10058000DF92EF92FF921F93CF93DF93EC016A010A
:100590007B01722EAB019601CB01B6010E94870947
:1005A0006EE171E0811126C046015701E894B7F869
:1005B0002FEF3FEF4FE75FE7C501B4010E948709C6
:1005C00081110CC02FEF3FEF4FE75FE7C501B4018A
:1005D0000E94BD0762E271E0181664F02FEF3FEF52
:1005E0004FE75FE4C701B6010E9415091816B4F47D
:1005F00066E271E0CE01DF91CF911F91FF90EF9005
:10060000DF90CF90BF90AF909F908F907F906F9032
:100610005F904F903F902F900C945A022FEF3FEF36
:100620004FE75FECC701B6010E94BD0787FDE0CF31
:1006300020E030E0A901C701B6010E94BD07312CBE
:10064000212C87FF0DC0E881F9810190F081E02D18
:100650006DE2CE0109951C01F7FAF094F7F8F094D9
:1006600010E060E070E080E09FE3711641F020E070
:1006700030E040E251E40E94C2071F5FF6CFA701BD
:1006800096010E9451072B013C010E9434084B0146
:100690005C012AE0BC01A401CE010E9469027C0138
:1006A000E20CF31C1123E1F1C501B4010E946308BF
:1006B0009B01AC01C301B2010E9450074B015C01D8
:1006C000E881F9810190F081E02D6EE2CE0109957B
:1006D000E80EF91E115020F120E030E040E251E434
:1006E000C501B4010E941A092B013C010E94340883
:1006F0004B01B12CA12C2AE0B501A401CE010E942E
:100700006902E80EF91EC501B4010E9463089B014D
:10071000AC01C301B2010E9450074B015C01DACF6A
:10072000C701DF91CF911F91FF90EF90DF90CF90A5
:10073000BF90AF909F908F907F906F905F904F9001
:100740003F902F900895CF93DF93EC0160E08E816E
:100750000E94A60061E08E810E94A60060E08E816A
:100760000E94A6008BE891E00197F1F7DF91CF910D
:100770000895CF92DF92EF92FF920F931F93CF9342
:10078000DF936C017C0187E0E80EF11CD0E0C0E053
:10079000062F10E0B8010C2E02C0759567950A94DB
:1007A000E2F76170F70181917F010E94A600219616
:1007B000C430D10579F7C601DF91CF911F910F9118
:1007C000FF90EF90DF90CF900C94A303CF92DF9235
:1007D000EF92FF920F931F93CF93DF93EC01F62ECE
:1007E000642F8C810E94A6008D818F3F19F060E0FC
:1007F0000E94A6000F2D10E08F8584FF25C06E019A
:1008000087E0C80ED11CF12CE12CB8010E2C02C0DF
:10081000759567950A94E2F76170F60181916F0111
:100820000E94A600FFEFEF1AFF0A88E0E816F10425
:1008300061F7CE01DF91CF911F910F91FF90EF9063
:10084000DF90CF900C94A303B80184E07595679571
:100850008A95E1F7CE010E94B9036F2DCE01DF9199
:10086000CF911F910F91FF90EF90DF90CF900C945C
:10087000B90340E0682F82E092E00C94E603CF9346
:10088000DF93823029F490911102986090931102C5
:10089000809315021092160280E48093170280E183
:1008A0008093180280E580931902809106020E94CD
:1008B0008700809107028F3F11F00E94870080918E
:1008C00008020E948700C2E0D2E09E01225032401E
:1008D0008091110284FD0AC084E090E021962817DF
:1008E00039073CF48E810E948700EFCF88E090E0CA
:1008F000F5CF8BE39DE00197F1F760E08091060270
:100900000E94A60060E0809108020E94A6008091EB
:1009100007028F3F19F060E00E94A600809111024B
:1009200084FD39C063E082E092E00E94B903CBE429
:10093000D6E4CE010197F1F763E082E092E00E94F5
:10094000B9032197F1F763E082E092E00E94B903D6
:1009500083E592E00197F1F762E082E092E00E9485
:10096000B9038091110280620E94390484E080936F
:1009700012028CE00E94390481E00E9439048BE36A
:100980009FE10197F1F782E08093130286E0DF9107
:10099000CF910C94390480620E9439048BE496E470
:1009A0000197F1F78091110280620E94390483E57A
:1009B00092E00197F1F78091110280620E94390460
:1009C000D0CF41E00E94E60381E090E008951F92BD
:1009D0000F920FB60F9211242F933F938F939F93F3
:1009E000AF93BF9380915D0190915E01A0915F01F3
:1009F000B091600130915C0123E0230F2D3758F551
:100A00000196A11DB11D20935C0180935D0190931F
:100A10005E01A0935F01B0936001809161019091AC
:100A20006201A0916301B09164010196A11DB11D05
:100A30008093610190936201A0936301B09364017C
:100A4000BF91AF919F918F913F912F910F900FBECA
:100A50000F901F90189526E8230F0296A11DB11D37
:100A6000D2CF1F920F920FB60F9211242F933F9364
:100A70004F935F936F937F938F939F93AF93BF93A6
:100A8000EF93FF9385E691E00E94C701FF91EF91FC
:100A9000BF91AF919F918F917F916F915F914F9196
:100AA0003F912F910F900FBE0F901F9018951F929E
:100AB0000F920FB60F9211242F938F939F93EF9362
:100AC000FF93E0917501F09176018081E0917B01C7
:100AD000F0917C0182FD1BC0908180917E018F5F2F
:100AE0008F7320917F01821741F0E0917E01F0E049
:100AF000EB59FE4F958F80937E01FF91EF919F916F
:100B00008F912F910F900FBE0F901F90189580819D
:100B1000F4CFE5E6F1E01382128288EE93E0A0E0E4
:100B2000B0E084839583A683B78384E091E09183CA
:100B3000808385EC90E09587848784EC90E09787AC
:100B4000868780EC90E0918B808B81EC90E0938B9A
:100B5000828B82EC90E0958B848B86EC90E0978B77
:100B6000868B118E128E138E148EE2E0F2E01382C9
:100B7000128286E191E0918380838CE084838FEF01
:100B800085838BE0868385E0878384E0808783E0AC
:100B9000818782E0828713861486158616861786DB
:100BA00081E00C943F04789484B5826084BD84B560
:100BB000816084BD85B5826085BD85B5816085BD58
:100BC00080916E00816080936E0010928100809110
:100BD0008100826080938100809181008160809398
:100BE0008100809180008160809380008091B100BD
:100BF00084608093B1008091B00081608093B000E8
:100C000080917A00846080937A0080917A0082607B
:100C100080937A0080917A00816080937A0080913D
:100C20007A00806880937A001092C100E09175018B
:100C3000F091760182E08083E0917101F091720180
:100C40001082E0917301F09174018FEC8083109217
:100C50007D01E0917901F0917A0186E08083E09155
:100C60007701F0917801808180618083E091770144
:100C7000F0917801808188608083E0917701F09124
:100C80007801808180688083E0917701F09178011C
:100C900080818F7D808382E00E943F046AE271E060
:100CA00082E092E00E945A026CED75E080E090E0F4
:100CB0000E94170181E00E9439048BE39FE10197B4
:100CC000F1F710E4C0E0D0E010937C0080917A004E
:100CD000806480937A0080917A0086FDFCCF6091D9
:100CE000780070917900072E000C880B990B0E94F8
:100CF000650820E030EC4FE754E40E94C20720E092
:100D000030E040EA50E40E941A096B017C012AEEAF
:100D10003AEB41E253EC0E941A09A70196010E94A6
:100D20001A094B015C012CEA38E74AE254E4C70196
:100D3000B6010E941A099B01AC01C501B4010E94D1
:100D4000510726E231EB4CEC53E40E9450074B0173
:100D50005C01E1E0809115028111E0E0E195F0E0B5
:100D6000EE5FFD4F848980680E9439046CE371E076
:100D700082E092E00E945A0223E0B701A60182E0DD
:100D800092E00E94B50260E471E082E092E00E948D
:100D90005A02E0911502E23008F058C0E150F0E04C
:100DA000EE5FFD4F848980680E94390463E471E03E
:100DB00082E092E00E945A0222E0B501A40182E0A2
:100DC00092E00E94B50241E06FED82E092E00E9465
:100DD000E60367E571E082E092E00E945A0267E470
:100DE00071E085E691E00E945A0223E0B701A60176
:100DF00085E691E00E94B5026CE471E085E691E041
:100E00000E945A0222E0B501A40185E691E00E9409
:100E1000B50266E571E085E691E00E945A0269E557
:100E200071E085E691E00E945A0268EE73E080E08E
:100E300090E00E941701209709F446CF0E94B30169
:100E4000882309F441CF0E9400003ECFE1E0A7CF04
:100E5000A1E21A2EAA1BBB1BFD010DC0AA1FBB1FBE
:100E6000EE1FFF1FA217B307E407F50720F0A21B30
:100E7000B30BE40BF50B661F771F881F991F1A949D
:100E800069F760957095809590959B01AC01BD01C7
:100E9000CF010895EE0FFF1F0590F491E02D099406
:100EA0005058BB27AA270E9468070C94DB080E94B1
:100EB000CD0838F00E94D40820F039F49F3F19F48F
:100EC00026F40C94CA080EF4E095E7FB0C94C408D1
:100ED000E92F0E94EC0858F3BA17620773078407DA
:100EE000950720F079F4A6F50C940E090EF4E09520
:100EF0000B2EBA2FA02D0B01B90190010C01CA01D4
:100F0000A0011124FF27591B99F0593F50F4503E7E
:100F100068F11A16F040A22F232F342F4427585F70
:100F2000F3CF469537952795A795F0405395C9F788
:100F30007EF41F16BA0B620B730B840BBAF0915040
:100F4000A1F0FF0FBB1F661F771F881FC2F70EC0DF
:100F5000BA0F621F731F841F48F4879577956795B2
:100F6000B795F7959E3F08F0B0CF9395880F08F09E
:100F70009927EE0F9795879508950E94A00808F489
:100F800081E008950E94D6070C94DB080E94D408E3
:100F900058F00E94CD0840F029F45F3F29F00C94EE
:100FA000C40851110C940F090C94CA080E94EC0853
:100FB00068F39923B1F3552391F3951B550BBB2788
:100FC000AA2762177307840738F09F5F5F4F220FCD
:100FD000331F441FAA1FA9F335D00E2E3AF0E0E8C4
:100FE00032D091505040E695001CCAF72BD0FE2F0E
:100FF00029D0660F771F881FBB1F261737074807A2
:10100000AB07B0E809F0BB0B802DBF01FF27935859
:101010005F4F3AF09E3F510578F00C94C4080C9451
:101020000F095F3FE4F3983ED4F386957795679573
:10103000B795F7959F5FC9F7880F911D969587958E
:1010400097F90895E1E0660F771F881FBB1F6217AD
:1010500073078407BA0720F0621B730B840BBA0B6B
:10106000EE1F88F7E09508950E94F40888F09F57D6
:1010700098F0B92F9927B751B0F0E1F0660F771FBC
:10108000881F991F1AF0BA95C9F714C0B13091F0B2
:101090000E940E09B1E008950C940E09672F782F75
:1010A0008827B85F39F0B93FCCF386957795679577
:1010B000B395D9F73EF490958095709561957F4FE3
:1010C0008F4F9F4F0895E89409C097FB3EF4909589
:1010D0008095709561957F4F8F4F9F4F9923A9F011
:1010E000F92F96E9BB279395F695879577956795A0
:1010F000B795F111F8CFFAF4BB0F11F460FF1BC0E4
:101100006F5F7F4F8F4F9F4F16C0882311F096E976
:1011100011C0772321F09EE8872F762F05C0662324
:1011200071F096E8862F70E060E02AF09A95660FDD
:10113000771F881FDAF7880F9695879597F9089596
:10114000990F0008550FAA0BE0E8FEEF16161706D8
:10115000E807F907C0F012161306E407F50798F040
:10116000621B730B840B950B39F40A2661F0232B59
:10117000242B252B21F408950A2609F4A140A695D5
:101180008FEF811D811D089597F99F6780E870E0BA
:1011900060E008959FEF80EC089500240A941616ED
:1011A000170618060906089500240A941216130655
:1011B000140605060895092E0394000C11F48823E3
:1011C00052F0BB0F40F4BF2B11F460FF04C06F5FFF
:1011D0007F4F8F4F9F4F089557FD9058440F551FD5
:1011E00059F05F3F71F04795880F97FB991F61F0A9
:1011F0009F3F79F087950895121613061406551F20
:10120000F2CF4695F1DF08C0161617061806991F8B
:10121000F1CF86957105610508940895E894BB2780
:1012200066277727CB0197F908950E94A00808F454
:101230008FEF08950E942D090C94DB080E94CD08C1
:1012400038F00E94D40820F0952311F00C94C408C3
:101250000C94CA0811240C940F090E94EC0870F336
:10126000959FC1F3950F50E0551F629FF001729F4B
:10127000BB27F00DB11D639FAA27F00DB11DAA1F5A
:10128000649F6627B00DA11D661F829F2227B00DA7
:10129000A11D621F739FB00DA11D621F839FA00D32
:1012A000611D221F749F3327A00D611D231F849F82
:1012B000600D211D822F762F6A2F11249F575040D9
:1012C0009AF0F1F088234AF0EE0FFF1FBB1F661F54
:1012D000771F881F91505040A9F79E3F510580F01D
:1012E0000C94C4080C940F095F3FE4F3983ED4F3C8
:1012F000869577956795B795F795E7959F5FC1F7C1
:10130000FE2B880F911D9695879597F908950E9459
:0C131000A008880B990B0895F894FFCFFB
:10131C0000000000E901490176013602A7018501B0
:10132C00990100000000E1044901570256026E6168
:10133C006E00696E66006F76660050543130302056
:10134C00546865726D6F6D6574657200563A200055
:10135C00205600543A200056203D20002056207C78
:0C136C002054203D20002043000D0A000A
:00000001FF
