:100000000C945D000C9485000C9485000C94850084
:100010000C9485000C9485000C9485000C9485004C
:100020000C9485000C9485000C9485000C9485003C
:100030000C9485000C9485000C9485000C9485002C
:100040000C9422040C9485000C9485000C9485007B
:100050000C9485000C9485000C9485000C9485000C
:100060000C9485000C94850000000008000201003B
:100070000003040700000000000000000000000072
:10008000250028002B0000000000240027002A0083
:10009000040404040404040402020202020203032E
:1000A0000303030301020408102040800102040836
:1000B00010200102040810203F0511241FBECFEFBD
:1000C000D8E0DEBFCDBF11E0A0E0B1E0EEE0F0E1AE
:1000D00002C005900D92AC34B107D9F721E0ACE431
:1000E000B1E001C01D92AC36B207E1F710E0CDE5FA
:1000F000D0E004C02197FE010E94BE05CC35D10797
:10010000C9F70E946C040C9405080C94000090E060
:10011000FC01EC55FF4F249180579F4FFC018491C7
:10012000882399F090E0880F991FFC01EA57FF4F50
:10013000A591B491FC01E458FF4F859194918FB73C
:10014000F894EC91E22BEC938FBF089590E0FC01C2
:10015000E859FF4F2491FC01EC55FF4F3491FC010D
:10016000E057FF4FE491EE23C9F0222339F023300A
:1001700001F1A8F4213019F1223029F1F0E0EE0F5D
:10018000FF1FE458FF4FA591B4918FB7F894EC91FD
:10019000611126C030953E233C938FBF08952730D0
:1001A000A9F02830C9F0243049F7809180008F7D74
:1001B00003C0809180008F7780938000DFCF84B56B
:1001C0008F7784BDDBCF84B58F7DFBCF8091B0006E
:1001D0008F778093B000D2CF8091B0008F7DF9CF20
:1001E0003E2BDACF3FB7F8948091510190915201A4
:1001F000A0915301B091540126B5A89B05C02F3F93
:1002000019F00196A11DB11D3FBFBA2FA92F982F3C
:100210008827BC01CD01620F711D811D911D42E037
:10022000660F771F881F991F4A95D1F708958F92FF
:100230009F92AF92BF92CF92DF92EF92FF924B01CB
:100240005C010E94F2006B017C010E94F2006C19BB
:100250007D098E099F09683E734081059105A8F3C9
:1002600021E0821A9108A108B10888EEC80E83E047
:10027000D81EE11CF11C81149104A104B10429F7DA
:10028000FF90EF90DF90CF90BF90AF909F908F90B6
:100290000895AF92BF92CF92DF92EF92FF920F93A9
:1002A0001F93CF93DF936C017B018B01040F151F0C
:1002B000EB015E01AE18BF08C017D10759F0699174
:1002C000D601ED91FC910190F081E02DC6010995D8
:1002D000892B79F7C501DF91CF911F910F91FF9085
:1002E000EF90DF90CF90BF90AF900895BF92CF92E4
:1002F000DF92EF92FF920F931F93CF93DF938C01C6
:10030000B42E6C018EE0C80ED11CD0E0C0E0E62E09
:10031000F12CB7010C2E02C0759567950A94E2F78F
:100320006170F60181916F010E94A6002196CB15A4
:1003300080F361E0F80185850E94A60060E0F80185
:100340008585DF91CF911F910F91FF90EF90DF9006
:10035000CF90BF900C94A600FC0186898F3F71F06E
:1003600021853285662329F0232B31F461E00C943A
:10037000A60021303105D1F360E0F9CF0895EF9266
:10038000FF921F93CF93DF93EC01162F7A01862FF4
:100390000E9487001E8BFA86E986E881F981048431
:1003A000F585E02D60E0CE01DF91CF911F91FF90A8
:1003B000EF9009940F931F93CF93DF93EC01162FC7
:1003C000042F61E0413009F060E08B850E94A600B7
:1003D0008C858F3F19F060E00E94A600023079F012
:1003E0008C8148E084FD0CC0612F70E084E075953D
:1003F00067958A95E1F744E0CE010E94760144E0DA
:10040000612FCE01DF91CF911F910F910C94760156
:10041000DC01ED91FC910684F785E02D41E0099522
:1004200081E090E00895DC01ED91FC910684F78570
:10043000E02D40E00994CF93DF93CDB7DEB7289746
:100440000FB6F894DEBF0FBECDBF409101015091B1
:10045000020160910301709104014D835E836F83FB
:1004600078874091050150910601609107017091D4
:10047000080149835A836B837C8320915C01821736
:1004800010F08FEF820F90E030915D018C0F9D1F77
:10049000FC01303181F4243071F46181606885E5BC
:1004A00091E028960FB6F894DEBF0FBECDBFDF9166
:1004B000CF910C9413026581F1CF0F931F93CF93CB
:1004C000DF93EC01423018F08C8188608C834F837D
:1004D0006887222329F0413019F48C8184608C8351
:1004E00064E670E080E090E00E9417016C8164FD9A
:1004F0005CC0E881F9810684F785E02D42E063E085
:10050000CE0109958BE496E40197F1F7E881F98132
:100510000684F785E02D42E063E0CE01099503E50E
:1005200012E0C8010197F1F7E881F9810684F785A7
:10053000E02D42E063E0CE010995C8010197F1F793
:10054000E881F9810684F785E02D42E062E0CE0182
:100550000995C8010197F1F76C816062CE010E9494
:1005600013028BEE90E00197F1F784E08D836CE04D
:10057000CE010E94130261E0CE010E9413028BE3C0
:100580009FE10197F1F782E08E8366E0CE010E9441
:100590001302E881F9810484F585E02D6FEFCE0127
:1005A000DF91CF911F910F9109946062CE010E945B
:1005B00013028BE496E40197F1F76C816062CE013F
:1005C0000E94130203E512E0C8010197F1F76C8164
:1005D0006062CE010E941302BCCF08950895089571
:1005E00090E080E00895FC0101900020E9F7319748
:1005F000AF01481B590BBC0185E591E00C94490102
:100600008F929F92AF92BF920F931F93CF93DF93DE
:10061000CDB7DEB7A1970FB6F894DEBF0FBECDBF42
:1006200019A2423008F44AE08E010F5D1F4F842E5C
:10063000912CB12CA12CA50194010E949C05E62FC0
:10064000B901CA01EA30F4F4E05DD801EE938D01FE
:10065000232B242B252B79F790E080E0109719F0BD
:10066000CD010E94F302A1960FB6F894DEBF0FBE33
:10067000CDBFDF91CF911F910F91BF90AF909F9011
:100680008F900895E95CE1CF4F925F926F927F92D5
:100690008F929F92AF92BF92CF92DF92EF92FF9292
:1006A0000F931F93CF936B017C01742EAC019B01C0
:1006B0000E94FB07882399F08DE191E0CF911F9173
:1006C0000F91FF90EF90DF90CF90BF90AF909F90F1
:1006D0008F907F906F905F904F900C94F302460143
:1006E0005701E894B7F82FEF3FEF4FE75FE7C501F9
:1006F000B4010E94FB0781110DC02FEF3FEF4FE7C0
:100700005FE7C501B4010E94310618161CF481E2AE
:1007100091E0D4CF2FEF3FEF4FE75FE4C701B60181
:100720000E94890718161CF485E291E0C7CF2FEFCD
:100730003FEF4FE75FECC701B6010E94310687FD2E
:10074000F3CF20E030E0A901C701B6010E943106D5
:1007500010E000E087FF0AC06DE285E591E00E94AD
:1007600008028C01F7FAF094F7F8F094C0E060E02A
:1007700070E080E09FE37C1641F020E030E040E252
:1007800051E40E943606CF5FF6CFA70196010E9482
:10079000C5052B013C010E94A8064B015C014AE003
:1007A0000E9400037C01E00EF11ECC23C1F1C501C3
:1007B000B4010E94D7069B01AC01C301B2010E94A3
:1007C000C4054B015C016EE285E591E00E940802E0
:1007D000E80EF91EC15018F120E030E040E251E48B
:1007E000C501B4010E948E072B013C010E94A8069E
:1007F0004B01B12CA12C4AE0C501B4010E940003B9
:10080000E80EF91EC501B4010E94D7069B01AC0198
:10081000C301B2010E94C4054B015C01DBCFC701DB
:10082000CF911F910F91FF90EF90DF90CF90BF90ED
:10083000AF909F908F907F906F905F904F900895B2
:100840000E9400081F920F920FB60F9211242F934F
:100850003F938F939F93AF93BF9380914D0190915E
:100860004E01A0914F01B091500130914C0123E015
:10087000230F2D3758F50196A11DB11D20934C0172
:1008800080934D0190934E01A0934F01B09350017E
:100890008091510190915201A0915301B091540166
:1008A0000196A11DB11D8093510190935201A09317
:1008B0005301B0935401BF91AF919F918F913F919C
:1008C0002F910F900FBE0F901F90189526E8230FC1
:1008D0000296A11DB11DD2CF789484B5826084BDEB
:1008E00084B5816084BD85B5826085BD85B5816034
:1008F00085BD80916E00816080936E0010928100B2
:10090000809181008260809381008091810081606C
:10091000809381008091800081608093800080912D
:10092000B10084608093B1008091B00081608093B9
:10093000B00080917A00846080937A0080917A0080
:10094000826080937A0080917A00816080937A003F
:1009500080917A00806880937A001092C10081E0D3
:100960008093000120E042E060E185E591E00E9493
:100970005D0289E291E00E94F3026CED75E080E097
:1009800090E00E94170161E085E591E00E9413026A
:100990008BE39FE10197F1F7C0E0D0E08091000187
:1009A00020E4829FC001112480937C0080917A0012
:1009B000806480937A0080917A0086FDFCCF6091FC
:1009C000780070917900072E000C880B990B0E941B
:1009D000D9062AE038E240EA5BE30E948E076B0109
:1009E0007C0120E337E242E655E40E948E0724E0D2
:1009F00031E249E655E40E94C4054B015C012EE951
:100A00003DE446E554ECC701B6010E948E07A701FC
:100A100096010E948E079B01AC01C501B4010E94A2
:100A2000C5054B015C0180E00E941B0287E391E059
:100A30000E94F30244E0C701B6010E94440381E42E
:100A400091E00E94F30281E00E941B0285E491E0A4
:100A50000E94F30242E0C501B4010E94440389E40C
:100A600091E00E94F30268EE73E080E090E00E9463
:100A70001701209709F492CF0E9400008FCFCF93E7
:100A8000DF9310925801109257018DE091E09093FE
:100A90005601809355018CE0809360018FEF809325
:100AA00061018BE08093620185E08093630184E0C3
:100AB0008093640183E08093650182E08093660106
:100AC00010926701109268011092690110926A01F8
:100AD000C3E6D1E089910E94870081E0C736D8073C
:100AE000C9F7809160010E948700809161018F3F6A
:100AF00011F00E948700809162010E94870010928D
:100B0000590160E0809160010E94A60060E0809140
:100B100062010E94A600809161018F3F19F060E0A0
:100B20000E94A6008FEF80936B0110925F011092DC
:100B30005E01DF91CF910895A1E21A2EAA1BBB1B83
:100B4000FD010DC0AA1FBB1FEE1FFF1FA217B30799
:100B5000E407F50720F0A21BB30BE40BF50B661FAF
:100B6000771F881F991F1A9469F760957095809573
:100B700090959B01AC01BD01CF010895EE0FFF1FC1
:100B80000590F491E02D09945058BB27AA270E94A4
:100B9000DC050C944F070E94410738F00E9448077B
:100BA00020F039F49F3F19F426F40C943E070EF41C
:100BB000E095E7FB0C943807E92F0E94600758F393
:100BC000BA17620773078407950720F079F4A6F532
:100BD0000C9482070EF4E0950B2EBA2FA02D0B017A
:100BE000B90190010C01CA01A0011124FF27591B72
:100BF00099F0593F50F4503E68F11A16F040A22F78
:100C0000232F342F4427585FF3CF469537952795E8
:100C1000A795F0405395C9F77EF41F16BA0B620BE7
:100C2000730B840BBAF09150A1F0FF0FBB1F661F2E
:100C3000771F881FC2F70EC0BA0F621F731F841F71
:100C400048F4879577956795B795F7959E3F08F097
:100C5000B0CF9395880F08F09927EE0F9795879559
:100C600008950E94140708F481E008950E944A063E
:100C70000C944F070E94480758F00E94410740F02B
:100C800029F45F3F29F00C94380751110C94830725
:100C90000C943E070E94600768F39923B1F3552333
:100CA00091F3951B550BBB27AA276217730784077F
:100CB00038F09F5F5F4F220F331F441FAA1FA9F315
:100CC00035D00E2E3AF0E0E832D091505040E69503
:100CD000001CCAF72BD0FE2F29D0660F771F881F64
:100CE000BB1F261737074807AB07B0E809F0BB0B57
:100CF000802DBF01FF2793585F4F3AF09E3F51056B
:100D000078F00C9438070C9483075F3FE4F3983E27
:100D1000D4F3869577956795B795F7959F5FC9F753
:100D2000880F911D9695879597F90895E1E0660FD4
:100D3000771F881FBB1F621773078407BA0720F04D
:100D4000621B730B840BBA0BEE1F88F7E0950895B6
:100D50000E94680788F09F5798F0B92F9927B751DC
:100D6000B0F0E1F0660F771F881F991F1AF0BA954F
:100D7000C9F714C0B13091F00E948207B1E0089524
:100D80000C948207672F782F8827B85F39F0B93F16
:100D9000CCF3869577956795B395D9F73EF4909502
:100DA0008095709561957F4F8F4F9F4F0895E89480
:100DB00009C097FB3EF490958095709561957F4FA3
:100DC0008F4F9F4F9923A9F0F92F96E9BB27939551
:100DD000F695879577956795B795F111F8CFFAF461
:100DE000BB0F11F460FF1BC06F5F7F4F8F4F9F4F92
:100DF00016C0882311F096E911C0772321F09EE8F0
:100E0000872F762F05C0662371F096E8862F70E055
:100E100060E02AF09A95660F771F881FDAF7880F2F
:100E20009695879597F90895990F0008550FAA0B85
:100E3000E0E8FEEF16161706E807F907C0F01216ED
:100E40001306E407F50798F0621B730B840B950BF0
:100E500039F40A2661F0232B242B252B21F4089545
:100E60000A2609F4A140A6958FEF811D811D0895E2
:100E700097F99F6780E870E060E008959FEF80EC4D
:100E8000089500240A9416161706180609060895F0
:100E900000240A9412161306140605060895092E56
:100EA0000394000C11F4882352F0BB0F40F4BF2BC5
:100EB00011F460FF04C06F5F7F4F8F4F9F4F089505
:100EC00057FD9058440F551F59F05F3F71F04795FB
:100ED000880F97FB991F61F09F3F79F087950895E0
:100EE000121613061406551FF2CF4695F1DF08C0FF
:100EF000161617061806991FF1CF8695710561051C
:100F000008940895E894BB2766277727CB0197F9C3
:100F100008950E94140708F48FEF08950E94A10716
:100F20000C944F070E94410738F00E94480720F0B8
:100F3000952311F00C9438070C943E0711240C945F
:100F400083070E94600770F3959FC1F3950F50E0EF
:100F5000551F629FF001729FBB27F00DB11D639F6B
:100F6000AA27F00DB11DAA1F649F6627B00DA11D11
:100F7000661F829F2227B00DA11D621F739FB00DB7
:100F8000A11D621F839FA00D611D221F749F332727
:100F9000A00D611D231F849F600D211D822F762FC0
:100FA0006A2F11249F5750409AF0F1F088234AF09D
:100FB000EE0FFF1FBB1F661F771F881F9150504009
:100FC000A9F79E3F510580F00C9438070C948307D5
:100FD0005F3FE4F3983ED4F3869577956795B79590
:100FE000F795E7959F5FC1F7FE2B880F911D9695AA
:100FF000879597F908950E941407880B990B089517
:0E10000081E090E0F8940C940508F894FFCF7E
:10100E000100401454004010500000000008024936
:10101E0001F002EF025D02BF01AC01DA016E616EFA
:10102E0000696E66006F766600566F6C7461676558
:10103E00204D6574657200566F6C746167653A2059
:0C104E000056202000543A2000432000EF
:00000001FF
