:100000000C945D000C9485000C9485000C94850084
:100010000C9485000C9485000C9485000C9485004C
:100020000C9485000C9485000C9485000C9485003C
:100030000C9485000C9485000C9485000C9485002C
:100040000C941D030C9485000C9485000C94850081
:100050000C9485000C9485000C9485000C9485000C
:100060000C9485000C94850000000008000201003B
:100070000003040700000000000000000000000072
:10008000250028002B0000000000240027002A0083
:10009000040404040404040402020202020203032E
:1000A0000303030301020408102040800102040836
:1000B0001020010204081020CE0411241FBECFEF2F
:1000C000D8E0DEBFCDBF11E0A0E0B1E0E4EAFEE0A1
:1000D00002C005900D92AC33B107D9F721E0ACE333
:1000E000B1E001C01D92AD35B207E1F710E0CDE5FA
:1000F000D0E004C02197FE010E940E05CC35D10747
:10010000C9F70E9467030C9450070C94000090E01C
:10011000FC01EC55FF4F249180579F4FFC018491C7
:10012000882399F090E0880F991FFC01EA57FF4F50
:10013000A591B491FC01E458FF4F859194918FB73C
:10014000F894EC91E22BEC938FBF089590E0FC01C2
:10015000E859FF4F2491FC01EC55FF4F3491FC010D
:10016000E057FF4FE491EE23C9F0222339F023300A
:1001700001F1A8F4213019F1223029F1F0E0EE0F5D
:10018000FF1FE458FF4FA591B4918FB7F894EC91FD
:10019000611126C030953E233C938FBF08952730D0
:1001A000A9F02830C9F0243049F7809180008F7D74
:1001B00003C0809180008F7780938000DFCF84B56B
:1001C0008F7784BDDBCF84B58F7DFBCF8091B0006E
:1001D0008F778093B000D2CF8091B0008F7DF9CF20
:1001E0003E2BDACF3FB7F8948091410190914201C4
:1001F000A0914301B091440126B5A89B05C02F3FB3
:1002000019F00196A11DB11D3FBFBA2FA92F982F3C
:100210008827BC01CD01620F711D811D911D42E037
:10022000660F771F881F991F4A95D1F708958F92FF
:100230009F92AF92BF92CF92DF92EF92FF924B01CB
:100240005C010E94F2006B017C010E94F2006C19BB
:100250007D098E099F09683E734081059105A8F3C9
:1002600021E0821A9108A108B10888EEC80E83E047
:10027000D81EE11CF11C81149104A104B10429F7DA
:10028000FF90EF90DF90CF90BF90AF909F908F90B6
:100290000895AF92BF92CF92DF92EF92FF920F93A9
:1002A0001F93CF93DF936C017B018B01040F151F0C
:1002B000EB015E01AE18BF08C017D10759F0699174
:1002C000D601ED91FC910190F081E02DC6010995D8
:1002D000892B79F7C501DF91CF911F910F91FF9085
:1002E000EF90DF90CF90BF90AF900895089590E089
:1002F00080E00895FC0101900020E9F73197AF01FB
:10030000481B590BBC0185E491E00C9449018F9284
:100310009F92AF92BF920F931F93CF93DF93CDB76E
:10032000DEB7A1970FB6F894DEBF0FBECDBF19A2FE
:10033000423008F44AE08E010F5D1F4F842E912C4D
:10034000B12CA12CA50194010E94EC04E62FB90167
:10035000CA01EA30F4F4E05DD801EE938D01232B5D
:10036000242B252B79F790E080E0109719F0CD0130
:100370000E947A01A1960FB6F894DEBF0FBECDBFE2
:10038000DF91CF911F910F91BF90AF909F908F9071
:100390000895E95CE1CFCF93DF93EC0160E08E81BB
:1003A0000E94A60061E08E810E94A60060E08E811E
:1003B0000E94A6008BE891E00197F1F7DF91CF91C1
:1003C0000895CF92DF92EF92FF920F931F93CF93F6
:1003D000DF936C017C0187E0E80EF11CD0E0C0E007
:1003E000062F10E0B8010C2E02C0759567950A948F
:1003F000E2F76170F70181917F010E94A6002196CA
:10040000C430D10579F7C601DF91CF911F910F91CB
:10041000FF90EF90DF90CF900C94CB01CF92DF92C2
:10042000EF92FF920F931F93CF93DF93EC01F62E81
:10043000642F8C810E94A6008D818F3F19F060E0AF
:100440000E94A6000F2D10E08F8584FF25C06E014D
:1004500087E0C80ED11CF12CE12CB8010E2C02C093
:10046000759567950A94E2F76170F60181916F01C5
:100470000E94A600FFEFEF1AFF0A88E0E816F104D9
:1004800061F7CE01DF91CF911F910F91FF90EF9017
:10049000DF90CF900C94CB01B80184E075956795FF
:1004A0008A95E1F7CE010E94E1016F2DCE01DF9127
:1004B000CF911F910F91FF90EF90DF90CF900C9410
:1004C000E10140E0682F85E491E00C940E02CF93A7
:1004D000DF93823029F490915401986090935401F5
:1004E000809358011092590180E480935A0180E171
:1004F00080935B0180E580935C01809149010E94BB
:10050000870080914A018F3F11F00E9487008091FF
:100510004B010E948700C5E4D1E09E012554314083
:100520008091540184FD0AC084E090E02196281750
:1005300039073CF48E810E948700EFCF88E090E07D
:10054000F5CF8BE39DE00197F1F760E080914901E1
:100550000E94A60060E080914B010E94A60080915D
:100560004A018F3F19F060E00E94A600809154017B
:1005700084FD39C063E085E491E00E94E101CBE4B1
:10058000D6E4CE010197F1F763E085E491E00E94A3
:10059000E1012197F1F763E085E491E00E94E10138
:1005A00083E592E00197F1F762E085E491E00E9433
:1005B000E1018091540180620E94610284E0809395
:1005C00055018CE00E94610281E00E9461028BE390
:1005D0009FE10197F1F782E08093560186E0DF9179
:1005E000CF910C94610280620E9461028BE496E4D8
:1005F0000197F1F78091540180620E94610283E5C6
:1006000092E00197F1F78091540180620E946102AB
:10061000D0CF90915801891710F08FEF890FE82FF4
:10062000F0E0EB5BFE4F848980680C94610241E04E
:100630000E940E0281E090E008951F920F920FB683
:100640000F9211242F933F938F939F93AF93BF9358
:1006500080913D0190913E01A0913F01B0914001F8
:1006600030913C0123E0230F2D3758F50196A11D51
:10067000B11D20933C0180933D0190933E01A093D6
:100680003F01B09340018091410190914201A091BE
:100690004301B09144010196A11DB11D8093410118
:1006A00090934201A0934301B0934401BF91AF9155
:1006B0009F918F913F912F910F900FBE0F901F90A0
:1006C000189526E8230F0296A11DB11DD2CF78946C
:1006D00084B5826084BD84B5816084BD85B5826047
:1006E00085BD85B5816085BD80916E0081608093F8
:1006F0006E00109281008091810082608093810061
:100700008091810081608093810080918000816070
:10071000809380008091B10084608093B1008091CB
:10072000B00081608093B00080917A0084608093F3
:100730007A0080917A00826080937A0080917A00BA
:10074000816080937A0080917A00806880937A003B
:100750001092C10082E00E94670280E00E940903BB
:100760008CE091E00E947A0181E00E94090384E11B
:1007700091E00E947A0168EB7BE080E090E00E94CB
:10078000170190E4392E0BE31FE1C0E0D0E08FE0C9
:10079000A82EB12CC12CD12C760130927C008091F6
:1007A0007A00806480937A0080917A0086FDFCCF85
:1007B0008091780090917900092E000CAA0BBB0B58
:1007C000C80ED91EEA1EFB1E64E670E080E090E0D1
:1007D0000E94170181E0A81AB108F9F6C701B60115
:1007E0000E94290620E030E040E751E40E9486059F
:1007F00020E030E040EA50E40E94DE0620E030ECE9
:100800004FE754E40E9486056B017C0181E00E9461
:100810006102C8010197F1F780E00E94090380E2BC
:1008200091E00E947A0181E00E9409032DE932EFF4
:100830004EE254E4C701B6010E94DE069B01AC0102
:1008400067ED76E986E294E40E9414054B015C01B1
:100850002CE934E54CE253E4C701B6010E94DE0600
:10086000A70196010E94DE069B01AC01C501B401FF
:100870000E9415056B017C014B015C01AC019B01E1
:100880000E944B07882381F08FE291E00E947A0159
:1008900060ED77E080E090E00E941701209709F476
:1008A00076CF0E94000073CF26013701E89477F8D5
:1008B0002FEF3FEF4FE75FE7C301B2010E944B0705
:1008C00081110DC02FEF3FEF4FE75FE7C301B2018A
:1008D0000E94810518161CF483E391E0D7CF2FEF17
:1008E0003FEF4FE75FE4C701B6010E94D906181633
:1008F0001CF487E391E0CACF2FEF3FEF4FE75FECA7
:10090000C701B6010E94810587FDF3CF20E030E0EA
:10091000A901C701B6010E94810587FF0CC041E013
:100920006DE285E491E00E940E0246015701B7FA9C
:10093000B094B7F8B0942DEC3CEC4CE45DE3C50109
:10094000B4010E9415054B015C010E94F8056B0182
:100950007C010E9427069B01AC01C501B4010E94E5
:1009600014054B015C014AE0C701B6010E948701F2
:1009700041E06EE285E491E00E940E0220E030E06A
:1009800040E251E4C501B4010E94DE060E94F80570
:1009900090E080E04AE00E9487017ACFE5E4F1E050
:1009A0001382128284E091E0918380838CE08483BF
:1009B0008FEF85838BE0868385E0878384E0808763
:1009C00083E0818782E082871386148615861686E7
:1009D000178681E00C946702A1E21A2EAA1BBB1BAA
:1009E000FD010DC0AA1FBB1FEE1FFF1FA217B307FB
:1009F000E407F50720F0A21BB30BE40BF50B661F11
:100A0000771F881F991F1A9469F7609570958095D4
:100A100090959B01AC01BD01CF010895EE0FFF1F22
:100A20000590F491E02D09945058BB27AA270E9405
:100A30002C050C949F060E94910638F00E9498069F
:100A400020F039F49F3F19F426F40C948E060EF42E
:100A5000E095E7FB0C948806E92F0E94B00658F356
:100A6000BA17620773078407950720F079F4A6F593
:100A70000C94D2060EF4E0950B2EBA2FA02D0B018C
:100A8000B90190010C01CA01A0011124FF27591BD3
:100A900099F0593F50F4503E68F11A16F040A22FD9
:100AA000232F342F4427585FF3CF4695379527954A
:100AB000A795F0405395C9F77EF41F16BA0B620B49
:100AC000730B840BBAF09150A1F0FF0FBB1F661F90
:100AD000771F881FC2F70EC0BA0F621F731F841FD3
:100AE00048F4879577956795B795F7959E3F08F0F9
:100AF000B0CF9395880F08F09927EE0F97958795BB
:100B000008950E94640608F481E008950E949A0501
:100B10000C949F060E94980658F00E94910640F09F
:100B200029F45F3F29F00C94880651110C94D306E8
:100B30000C948E060E94B00668F39923B1F35523F6
:100B400091F3951B550BBB27AA27621773078407E0
:100B500038F09F5F5F4F220F331F441FAA1FA9F376
:100B600035D00E2E3AF0E0E832D091505040E69564
:100B7000001CCAF72BD0FE2F29D0660F771F881FC5
:100B8000BB1F261737074807AB07B0E809F0BB0BB8
:100B9000802DBF01FF2793585F4F3AF09E3F5105CC
:100BA00078F00C9488060C94D3065F3FE4F3983EEB
:100BB000D4F3869577956795B795F7959F5FC9F7B5
:100BC000880F911D9695879597F90895E1E0660F36
:100BD000771F881FBB1F621773078407BA0720F0AF
:100BE000621B730B840BBA0BEE1F88F7E095089518
:100BF0000E94B80688F09F5798F0B92F9927B751EF
:100C0000B0F0E1F0660F771F881F991F1AF0BA95B0
:100C1000C9F714C0B13091F00E94D206B1E0089536
:100C20000C94D206672F782F8827B85F39F0B93F28
:100C3000CCF3869577956795B395D9F73EF4909563
:100C40008095709561957F4F8F4F9F4F0895E894E1
:100C500009C097FB3EF490958095709561957F4F04
:100C60008F4F9F4F9923A9F0F92F96E9BB279395B2
:100C7000F695879577956795B795F111F8CFFAF4C2
:100C8000BB0F11F460FF1BC06F5F7F4F8F4F9F4FF3
:100C900016C0882311F096E911C0772321F09EE851
:100CA000872F762F05C0662371F096E8862F70E0B7
:100CB00060E02AF09A95660F771F881FDAF7880F91
:100CC0009695879597F90895990F0008550FAA0BE7
:100CD000E0E8FEEF16161706E807F907C0F012164F
:100CE0001306E407F50798F0621B730B840B950B52
:100CF00039F40A2661F0232B242B252B21F40895A7
:100D00000A2609F4A140A6958FEF811D811D089543
:100D100097F99F6780E870E060E008959FEF80ECAE
:100D2000089500240A941616170618060906089551
:100D300000240A9412161306140605060895092EB7
:100D40000394000C11F4882352F0BB0F40F4BF2B26
:100D500011F460FF04C06F5F7F4F8F4F9F4F089566
:100D600057FD9058440F551F59F05F3F71F047955C
:100D7000880F97FB991F61F09F3F79F08795089541
:100D8000121613061406551FF2CF4695F1DF08C060
:100D9000161617061806991FF1CF8695710561057D
:100DA00008940895E894BB2766277727CB0197F925
:100DB00008950E94640608F48FEF08950E94F106DA
:100DC0000C949F060E94910638F00E94980620F02D
:100DD000952311F00C9488060C948E0611240C9423
:100DE000D3060E94B00670F3959FC1F3950F50E0B3
:100DF000551F629FF001729FBB27F00DB11D639FCD
:100E0000AA27F00DB11DAA1F649F6627B00DA11D72
:100E1000661F829F2227B00DA11D621F739FB00D18
:100E2000A11D621F839FA00D611D221F749F332788
:100E3000A00D611D231F849F600D211D822F762F21
:100E40006A2F11249F5750409AF0F1F088234AF0FE
:100E5000EE0FFF1FBB1F661F771F881F915050406A
:100E6000A9F79E3F510580F00C9488060C94D30698
:100E70005F3FE4F3983ED4F3869577956795B795F1
:100E8000F795E7959F5FC1F7FE2B880F911D96950B
:100E9000879597F908950E946406880B990B089529
:040EA000F894FFCFF4
:100EA400000000001703490177017601446967696E
:100EB40074616C00546865726D6F6D657465720061
:100EC40054656D7065726174757265203A20006EA8
:0C0ED400616E00696E66006F76660000BB
:00000001FF
