:020000040000FA
:100000000C945D000C9485000C9485000C94850084
:100010000C9485000C9485000C9485000C9485004C
:100020000C9485000C9485000C9485000C9485003C
:100030000C9485000C9485000C9485000C9485002C
:100040000C94E9040C9485000C9459050C94330528
:100050000C9485000C9485000C9485000C9485000C
:100060000C9485000C94850000000008000201003B
:100070000003040700000000000000000000000072
:10008000250028002B0000000000240027002A0083
:10009000040404040404040402020202020203032E
:1000A0000303030301020408102040800102040836
:1000B00010200102040810208B0511241FBECFEF71
:1000C000D8E0DEBFCDBF11E0A0E0B1E0E6E1F3E1B2
:1000D00002C005900D92AC35B107D9F722E0ACE52E
:1000E000B1E001C01D92AA31B207E1F710E0CDE501
:1000F000D0E004C02197FE010E948309CC35D107CE
:10010000C9F70E94D5050C9489090C94000090E071
:10011000FC01EC55FF4F249180579F4FFC018491C7
:10012000882399F090E0880F991FFC01EA57FF4F50
:10013000A591B491FC01E458FF4F859194918FB73C
:10014000F894EC91E22BEC938FBF089590E0FC01C2
:10015000E859FF4F2491FC01EC55FF4F3491FC010D
:10016000E057FF4FE491EE23C9F0222339F023300A
:1001700001F1A8F4213019F1223029F1F0E0EE0F5D
:10018000FF1FE458FF4FA591B4918FB7F894EC91FD
:10019000611126C030953E233C938FBF08952730D0
:1001A000A9F02830C9F0243049F7809180008F7D74
:1001B00003C0809180008F7780938000DFCF84B56B
:1001C0008F7784BDDBCF84B58F7DFBCF8091B0006E
:1001D0008F778093B000D2CF8091B0008F7DF9CF20
:1001E0003E2BDACF3FB7F894809161019091620184
:1001F000A0916301B091640126B5A89B05C02F3F73
:1002000019F00196A11DB11D3FBFBA2FA92F982F3C
:100210008827BC01CD01620F711D811D911D42E037
:10022000660F771F881F991F4A95D1F708958F92FF
:100230009F92AF92BF92CF92DF92EF92FF924B01CB
:100240005C010E94F2006B017C010E94F2006C19BB
:100250007D098E099F09683E734081059105A8F3C9
:1002600021E0821A9108A108B10888EEC80E83E047
:10027000D81EE11CF11C81149104A104B10429F7DA
:10028000FF90EF90DF90CF90BF90AF909F908F90B6
:100290000895DC01ED91FC910190F081E02D09942D
:1002A000AF92BF92CF92DF92EF92FF920F931F9384
:1002B000CF93DF936C017B018B01040F151FEB01C2
:1002C0005E01AE18BF08C017D10759F06991D60179
:1002D000ED91FC910190F081E02DC6010995892BEB
:1002E00079F7C501DF91CF911F910F91FF90EF90AA
:1002F000DF90CF90BF90AF900895FC01538D448D57
:10030000252F30E0842F90E0821B930B541710F0C0
:10031000CF96089501970895FC01918D828D9817CD
:1003200061F0A28DAE0FBF2FB11D5D968C91928DA5
:100330009F5F9F73928F90E008958FEF9FEF0895D6
:10034000FC01918D828D981731F0828DE80FF11D9F
:10035000858D90E008958FEF9FEF0895FC01918DBA
:10036000228D892F90E0805C9F4F821B91098F73B3
:100370009927089585E691E00E94AE0121E0892B3E
:1003800009F420E0822F089580E090E0892B29F085
:100390000E94BA0181110C9400000895FC01A48D03
:1003A000A80FB92FB11DA35ABF4F2C91848D90E097
:1003B00001968F739927848FA689B7892C93A0897A
:1003C000B1898C91837080648C93938D848D981304
:1003D00006C00288F389E02D80818F7D8083089597
:1003E000EF92FF920F931F93CF93DF93EC0181E085
:1003F000888F9B8D8C8D98131AC0E889F98980812C
:1004000085FF15C09FB7F894EE89FF896083E8895E
:10041000F98980818370806480839FBF81E090E050
:10042000DF91CF911F910F91FF90EF900895F62EDD
:100430000B8D10E00F5F1F4F0F731127E02E8C8D77
:100440008E110CC00FB607FCFACFE889F9898081BC
:1004500085FFF5CFCE010E94CE01F1CFEB8DEC0FE1
:10046000FD2FF11DE35AFF4FF0829FB7F8940B8FD9
:10047000EA89FB8980818062CFCFCF93DF93EC0143
:10048000888D8823B9F0AA89BB89E889F9898C917C
:1004900085FD03C0808186FD0DC00FB607FCF7CF38
:1004A0008C9185FFF2CF808185FFEDCFCE010E9438
:1004B000CE01E9CFDF91CF910895089590E080E0DB
:1004C0000895CF93DF93EC0160E08E810E94A60037
:1004D00061E08E810E94A60060E08E810E94A600ED
:1004E0008BE891E00197F1F7DF91CF910895CF92DA
:1004F000DF92EF92FF920F931F93CF93DF936C01E4
:100500007C0187E0E80EF11CD0E0C0E0062F10E08F
:10051000B8010C2E02C0759567950A94E2F76170D8
:10052000F70181917F010E94A6002196C430D10578
:1005300079F7C601DF91CF911F910F91FF90EF9056
:10054000DF90CF900C946102CF92DF92EF92FF92F6
:100550000F931F93CF93DF93EC01F62E642F8C81C2
:100560000E94A6008D818F3F19F060E00E94A600D6
:100570000F2D10E08F8584FF25C06E0187E0C80E27
:10058000D11CF12CE12CB8010E2C02C07595679599
:100590000A94E2F76170F60181916F010E94A60052
:1005A000FFEFEF1AFF0A88E0E816F10461F7CE01C9
:1005B000DF91CF911F910F91FF90EF90DF90CF903F
:1005C0000C946102B80184E0759567958A95E1F70E
:1005D000CE010E9477026F2DCE01DF91CF911F9146
:1005E0000F91FF90EF90DF90CF900C94770240E056
:1005F000682F82E092E00C94A40281E00E94F7024E
:100600008BE39FE10197F1F70895CF93DF93823059
:1006100029F4909111029860909311028093150231
:100620001092160280E48093170280E180931802F2
:1006300080E580931902809106020E9487008091D4
:1006400007028F3F11F00E948700809108020E94EC
:100650008700C2E0D2E09E01225032408091110218
:1006600084FD0AC084E090E02196281739073CF405
:100670008E810E948700EFCF88E090E0F5CF8BE37A
:100680009DE00197F1F760E0809106020E94A600CC
:1006900060E0809108020E94A600809107028F3FCF
:1006A00019F060E00E94A6008091110284FD34C020
:1006B00063E082E092E00E947702CBE4D6E4CE01D0
:1006C0000197F1F763E082E092E00E9477022197C0
:1006D000F1F763E082E092E00E94770283E592E026
:1006E0000197F1F762E082E092E00E947702809148
:1006F000110280620E94F70284E0809312028CE073
:100700000E94F7020E94FD0282E08093130286E0BD
:10071000DF91CF910C94F70280620E94F7028BE484
:1007200096E40197F1F78091110280620E94F7022E
:1007300083E592E00197F1F78091110280620E94B7
:10074000F702D5CF41E00E94A40281E090E0089535
:10075000FB0101900020E9F73197AF01461B570BD1
:10076000DC01ED91FC910280F381E02D09948F92E0
:100770009F92AF92BF92EF92FF920F931F93CF93EE
:10078000DF93CDB7DEB7A1970FB6F894DEBF0FBEEB
:10079000CDBF7C01FA01CB0119A2223008F42AE076
:1007A0008E010F5D1F4F822E912CB12CA12CBF0109
:1007B000A50194010E946109F901CA016A300CF592
:1007C000605DD8016E938D01232B242B252B79F7A7
:1007D00090E080E0109721F0BD01C7010E94A803BE
:1007E000A1960FB6F894DEBF0FBECDBFDF91CF91BB
:1007F0001F910F91FF90EF90BF90AF909F908F90BF
:100800000895695CDECF2F923F924F925F926F9274
:100810007F928F929F92AF92BF92CF92DF92EF9290
:10082000FF921F93CF93DF93EC016A017B01722E3D
:10083000AB019601CB01B6010E945C096EE171E04B
:10084000811126C046015701E894B7F82FEF3FEF1A
:100850004FE75FE7C501B4010E945C0981110CC03C
:100860002FEF3FEF4FE75FE7C501B4010E9492070A
:1008700062E271E0181664F02FEF3FEF4FE75FE49C
:10088000C701B6010E94EA081816B4F466E271E0E6
:10089000CE01DF91CF911F91FF90EF90DF90CF902D
:1008A000BF90AF909F908F907F906F905F904F9090
:1008B0003F902F900C94A8032FEF3FEF4FE75FEC92
:1008C000C701B6010E94920787FDE0CF20E030E02B
:1008D000A901C701B6010E949207312C212C87FF84
:1008E00009C06DE2CE010E9449011C01F7FAF094A3
:1008F000F7F8F09410E060E070E080E09FE371169C
:1009000041F020E030E040E251E40E9497071F5F91
:10091000F6CFA70196010E9426072B013C010E94F9
:1009200009084B015C012AE0BC01A401CE010E9430
:10093000B7037C01E20CF31C1123C1F1C501B40122
:100940000E9438089B01AC01C301B2010E94250737
:100950004B015C016EE2CE010E944901E80EF91ED6
:10096000115020F120E030E040E251E4C501B40133
:100970000E94EF082B013C010E9409084B01B12C99
:10098000A12C2AE0B501A401CE010E94B703E80E14
:10099000F91EC501B4010E9438089B01AC01C301D6
:1009A000B2010E9425074B015C01DACFC701DF913C
:1009B000CF911F91FF90EF90DF90CF90BF90AF90BD
:1009C0009F908F907F906F905F904F903F902F906F
:1009D00008951F920F920FB60F9211242F933F93F9
:1009E0008F939F93AF93BF9380915D0190915E0130
:1009F000A0915F01B091600130915C0123E0230F71
:100A00002D3758F50196A11DB11D20935C018093EF
:100A10005D0190935E01A0935F01B09360018091AE
:100A2000610190916201A0916301B091640101960E
:100A3000A11DB11D8093610190936201A093630198
:100A4000B0936401BF91AF919F918F913F912F918E
:100A50000F900FBE0F901F90189526E8230F029657
:100A6000A11DB11DD2CF1F920F920FB60F9211246C
:100A70002F933F934F935F936F937F938F939F93A6
:100A8000AF93BF93EF93FF9385E691E00E94CE0171
:100A9000FF91EF91BF91AF919F918F917F916F9156
:100AA0005F914F913F912F910F900FBE0F901F902C
:100AB00018951F920F920FB60F9211242F938F93B8
:100AC0009F93EF93FF93E0917501F0917601808100
:100AD000E0917B01F0917C0182FD1BC090818091AF
:100AE0007E018F5F8F7320917F01821741F0E0912B
:100AF0007E01F0E0EB59FE4F958F80937E01FF91D0
:100B0000EF919F918F912F910F900FBE0F901F909B
:100B100018958081F4CFE5E6F1E01382128288EE29
:100B200093E0A0E0B0E084839583A683B78384E05C
:100B300091E09183808385EC90E09587848784ECB5
:100B400090E09787868780EC90E0918B808B81EC9A
:100B500090E0938B828B82EC90E0958B848B86EC7B
:100B600090E0978B868B118E128E138E148EE2E09E
:100B7000F2E01382128286E191E0918380838CE01F
:100B800084838FEF85838BE0868385E0878384E091
:100B9000808783E0818782E08287138614861586AA
:100BA0001686178681E00C940503789484B58260DC
:100BB00084BD84B5816084BD85B5826085BD85B501
:100BC000816085BD80916E00816080936E0010927F
:100BD00081008091810082608093810080918100FA
:100BE000816080938100809180008160809380008B
:100BF0008091B10084608093B1008091B0008160E9
:100C00008093B00080917A00846080937A00809114
:100C10007A00826080937A0080917A00816080936C
:100C20007A0080917A00806880937A001092C100E7
:100C3000E0917501F091760182E08083E09171018D
:100C4000F09172011082E0917301F09174018FECC8
:100C5000808310927D01E0917901F0917A0186E024
:100C60008083E0917701F0917801808180618083B9
:100C7000E0917701F0917801808188608083E09134
:100C80007701F0917801808180688083E09177011D
:100C9000F091780180818F7D808382E00E9405033E
:100CA0000E94FD02E1E0809115028111E0E0E195F2
:100CB000F0E0EE5FFD4F848980680E94F7026AE2EF
:100CC00071E082E092E00E94A8036CED75E080E0A4
:100CD00090E00E94170110E4C0E0D0E010937C0087
:100CE00080917A00806480937A0080917A0086FDFA
:100CF000FCCFC0907800D09079000D2C000CEE084D
:100D0000FF08C701B6010E943A0820E030E040EA3F
:100D100050E40E94EF0820E030EC4FE754E40E94DA
:100D200097074B015C016AE371E085E691E00E9460
:100D3000A8032AE0B701A601F7FE0DC06DE285E623
:100D400091E00E94490144275527BA014C195D09D9
:100D50006E097F092AE085E691E00E94B70360E40E
:100D600071E085E691E00E94A80324E0B501A401AA
:100D700085E691E00E9403046DE471E085E691E070
:100D80000E94A80360E571E085E691E00E94A80357
:100D90000E94FD02E1E0809115028111E0E0E19501
:100DA000F0E0EE5FFD4F848980680E94F70263E502
:100DB00071E082E092E00E94A8032AE0B701A60158
:100DC000F7FE0DC06DE282E092E00E9449014427E7
:100DD0005527BA014C195D096E097F092AE082E0A6
:100DE00092E00E94B703E0911502E23060F5E15015
:100DF000F0E0EE5FFD4F848980680E94F70268E5AD
:100E000071E082E092E00E94A80324E0B501A40111
:100E100082E092E00E9403046EE471E082E092E0DE
:100E20000E94A80368EE73E080E090E00E94170142
:100E3000209709F453CF0E94BA01882309F44ECFBA
:100E40000E9400004BCFE1E0D3CF5058BB27AA2728
:100E50000E943D070C94B0080E94A20838F00E943E
:100E6000A90820F039F49F3F19F426F40C949F0848
:100E70000EF4E095E7FB0C949908E92F0E94C10855
:100E800058F3BA17620773078407950720F079F4BF
:100E9000A6F50C94E3080EF4E0950B2EBA2FA02DC6
:100EA0000B01B90190010C01CA01A0011124FF2717
:100EB000591B99F0593F50F4503E68F11A16F04012
:100EC000A22F232F342F4427585FF3CF4695379511
:100ED0002795A795F0405395C9F77EF41F16BA0BD6
:100EE000620B730B840BBAF09150A1F0FF0FBB1F84
:100EF000661F771F881FC2F70EC0BA0F621F731FCD
:100F0000841F48F4879577956795B795F7959E3F29
:100F100008F0B0CF9395880F08F09927EE0F9795BA
:100F2000879508950E94750808F481E008950E944D
:100F3000AB070C94B0080E94A90858F00E94A208C0
:100F400040F029F45F3F29F00C94990851110C945A
:100F5000E4080C949F080E94C10868F39923B1F338
:100F6000552391F3951B550BBB27AA2762177307CF
:100F7000840738F09F5F5F4F220F331F441FAA1F63
:100F8000A9F335D00E2E3AF0E0E832D0915050401F
:100F9000E695001CCAF72BD0FE2F29D0660F771FCD
:100FA000881FBB1F261737074807AB07B0E809F0B3
:100FB000BB0B802DBF01FF2793585F4F3AF09E3F38
:100FC000510578F00C9499080C94E4085F3FE4F321
:100FD000983ED4F3869577956795B795F7959F5F7B
:100FE000C9F7880F911D9695879597F90895E1E0C7
:100FF000660F771F881FBB1F621773078407BA0726
:1010000020F0621B730B840BBA0BEE1F88F7E09580
:1010100008950E94C90888F09F5798F0B92F992722
:10102000B751B0F0E1F0660F771F881F991F1AF0D3
:10103000BA95C9F714C0B13091F00E94E308B1E04D
:1010400008950C94E308672F782F8827B85F39F04C
:10105000B93FCCF3869577956795B395D9F73EF46C
:1010600090958095709561957F4F8F4F9F4F089514
:10107000E89409C097FB3EF4909580957095619532
:101080007F4F8F4F9F4F9923A9F0F92F96E9BB27E8
:101090009395F695879577956795B795F111F8CF64
:1010A000FAF4BB0F11F460FF1BC06F5F7F4F8F4FCF
:1010B0009F4F16C0882311F096E911C0772321F0C5
:1010C0009EE8872F762F05C0662371F096E8862F5D
:1010D00070E060E02AF09A95660F771F881FDAF7B4
:1010E000880F9695879597F90895990F0008550FE1
:1010F000AA0BE0E8FEEF16161706E807F907C0F09E
:1011000012161306E407F50798F0621B730B840BA5
:10111000950B39F40A2661F0232B242B252B21F47F
:1011200008950A2609F4A140A6958FEF811D811D1F
:10113000089597F99F6780E870E060E008959FEF59
:1011400080EC089500240A9416161706180609065E
:10115000089500240A94121613061406050608952D
:10116000092E0394000C11F4882352F0BB0F40F4B5
:10117000BF2B11F460FF04C06F5F7F4F8F4F9F4FF5
:10118000089557FD9058440F551F59F05F3F71F077
:101190004795880F97FB991F61F09F3F79F08795DE
:1011A0000895121613061406551FF2CF4695F1DF67
:1011B00008C0161617061806991FF1CF86957105F7
:1011C000610508940895E894BB2766277727CB012B
:1011D00097F908950E94750808F48FEF08950E940A
:1011E00002090C94B0080E94A20838F00E94A908D5
:1011F00020F0952311F00C9499080C949F08112469
:101200000C94E4080E94C10870F3959FC1F3950FF8
:1012100050E0551F629FF001729FBB27F00DB11D7A
:10122000639FAA27F00DB11DAA1F649F6627B00D0A
:10123000A11D661F829F2227B00DA11D621F739FF3
:10124000B00DA11D621F839FA00D611D221F749F01
:101250003327A00D611D231F849F600D211D822F48
:10126000762F6A2F11249F5750409AF0F1F088236F
:101270004AF0EE0FFF1FBB1F661F771F881F91509C
:101280005040A9F79E3F510580F00C9499080C94AA
:10129000E4085F3FE4F3983ED4F38695779567952D
:1012A000B795F795E7959F5FC1F7FE2B880F911DC6
:1012B0009695879597F908950E947508880B990B64
:1012C0000895A1E21A2EAA1BBB1BFD010DC0AA1F87
:1012D000BB1FEE1FFF1FA217B307E407F50720F09F
:1012E000A21BB30BE40BF50B661F771F881F991F1A
:1012F0001A9469F760957095809590959B01AC0163
:10130000BD01CF010895EE0FFF1F0590F491E02D70
:101310000994F894FFCF00000000F00150017D0116
:101320003D02AE018C01A00100000000A2035001AB
:101330005E025D026E616E00696E66006F76660029
:10134000413020566F6C746167652054657374007A
:101350004144433A2000207C20566F6C74616765DD
:101360003A20002056000D0A004144433A00563A04
:0213700000007B
:107E0000112484B714BE81FFF0D085E080938100F7
:107E100082E08093C00088E18093C10086E0809377
:107E2000C20080E18093C4008EE0C9D0259A86E02C
:107E300020E33CEF91E0309385002093840096BBD3
:107E4000B09BFECF1D9AA8958150A9F7CC24DD24C4
:107E500088248394B5E0AB2EA1E19A2EF3E0BF2EE7
:107E6000A2D0813461F49FD0082FAFD0023811F036
:107E7000013811F484E001C083E08DD089C08234E0
:107E800011F484E103C0853419F485E0A6D080C0E4
:107E9000853579F488D0E82EFF2485D0082F10E0AE
:107EA000102F00270E291F29000F111F8ED06801E7
:107EB0006FC0863521F484E090D080E0DECF843638
:107EC00009F040C070D06FD0082F6DD080E0C81688
:107ED00080E7D80618F4F601B7BEE895C0E0D1E017
:107EE00062D089930C17E1F7F0E0CF16F0E7DF06D8
:107EF00018F0F601B7BEE89568D007B600FCFDCFD4
:107F0000A601A0E0B1E02C9130E011968C91119780
:107F100090E0982F8827822B932B1296FA010C0160
:107F200087BEE89511244E5F5F4FF1E0A038BF0790
:107F300051F7F601A7BEE89507B600FCFDCF97BE46
:107F4000E89526C08437B1F42ED02DD0F82E2BD052
:107F50003CD0F601EF2C8F010F5F1F4F84911BD097
:107F6000EA94F801C1F70894C11CD11CFA94CF0C13
:107F7000D11C0EC0853739F428D08EE10CD085E9AC
:107F80000AD08FE07ACF813511F488E018D01DD067
:107F900080E101D065CF982F8091C00085FFFCCF94
:107FA0009093C60008958091C00087FFFCCF809118
:107FB000C00084FD01C0A8958091C6000895E0E648
:107FC000F0E098E1908380830895EDDF803219F02E
:107FD00088E0F5DFFFCF84E1DECF1F93182FE3DFCA
:107FE0001150E9F7F2DF1F91089580E0E8DFEE27F6
:047FF000FF270994CA
:027FFE00040479
:00000001FF
