:100000000C945D000C9485000C9485000C94850084
:100010000C9485000C9485000C9485000C9485004C
:100020000C9485000C9485000C9485000C9485003C
:100030000C9485000C9485000C9485000C9485002C
:100040000C941E050C9485000C948E050C94680588
:100050000C9485000C9485000C9485000C9485000C
:100060000C9485000C94850000000008000201003B
:100070000003040700000000000000000000000072
:10008000250028002B0000000000240027002A0083
:10009000040404040404040402020202020203032E
:1000A0000303030301020408102040800102040836
:1000B0001020010204081020C00511241FBECFEF3C
:1000C000D8E0DEBFCDBF11E0A0E0B1E0E6ECF3E1A7
:1000D00002C005900D92A235B107D9F722E0A2E542
:1000E000B1E001C01D92AF30B207E1F710E0CDE5FD
:1000F000D0E004C02197FE010E949A07CC35D107B9
:10010000C9F70E945F060C94E1090C94000090E08E
:10011000FC01EC55FF4F249180579F4FFC018491C7
:10012000882399F090E0880F991FFC01EA57FF4F50
:10013000A591B491FC01E458FF4F859194918FB73C
:10014000F894EC91E22BEC938FBF089590E0FC01C2
:10015000E859FF4F2491FC01EC55FF4F3491FC010D
:10016000E057FF4FE491EE23C9F0222339F023300A
:1001700001F1A8F4213019F1223029F1F0E0EE0F5D
:10018000FF1FE458FF4FA591B4918FB7F894EC91FD
:10019000611126C030953E233C938FBF08952730D0
:1001A000A9F02830C9F0243049F7809180008F7D74
:1001B00003C0809180008F7780938000DFCF84B56B
:1001C0008F7784BDDBCF84B58F7DFBCF8091B0006E
:1001D0008F778093B000D2CF8091B0008F7DF9CF20
:1001E0003E2BDACF3FB7F894809157019091580198
:1001F000A0915901B0915A0126B5A89B05C02F3F87
:1002000019F00196A11DB11D3FBFBA2FA92F982F3C
:100210008827BC01CD01620F711D811D911D42E037
:10022000660F771F881F991F4A95D1F708958F92FF
:100230009F92AF92BF92CF92DF92EF92FF924B01CB
:100240005C010E94F2006B017C010E94F2006C19BB
:100250007D098E099F09683E734081059105A8F3C9
:1002600021E0821A9108A108B10888EEC80E83E047
:10027000D81EE11CF11C81149104A104B10429F7DA
:10028000FF90EF90DF90CF90BF90AF909F908F90B6
:100290000895AF92BF92CF92DF92EF92FF920F93A9
:1002A0001F93CF93DF936C017B018B01040F151F0C
:1002B000EB015E01AE18BF08C017D10759F0699174
:1002C000D601ED91FC910190F081E02DC6010995D8
:1002D000892B79F7C501DF91CF911F910F91FF9085
:1002E000EF90DF90CF90BF90AF900895FC01538DB9
:1002F000448D252F30E0842F90E0821B930B541700
:1003000010F0CF96089501970895FC01918D828D8C
:10031000981761F0A28DAE0FBF2FB11D5D968C9125
:10032000928D9F5F9F73928F90E008958FEF9FEF64
:100330000895FC01918D828D981731F0828DE80F20
:10034000F11D858D90E008958FEF9FEF0895FC01DA
:10035000918D228D892F90E0805C9F4F821B9109A7
:100360008F73992708958BE591E00E94A70121E002
:10037000892B09F420E0822F089580E090E0892BFA
:1003800029F00E94B30181110C9400000895FC0132
:10039000A48DA80FB92FB11DA35ABF4F2C91848DE6
:1003A00090E001968F739927848FA689B7892C9343
:1003B000A089B1898C91837080648C93938D848D96
:1003C000981306C00288F389E02D80818F7D808399
:1003D0000895EF92FF920F931F93CF93DF93EC0159
:1003E00081E0888F9B8D8C8D98131AC0E889F989DC
:1003F000808185FF15C09FB7F894EE89FF896083DF
:10040000E889F98980818370806480839FBF81E05F
:1004100090E0DF91CF911F910F91FF90EF900895A1
:10042000F62E0B8D10E00F5F1F4F0F731127E02E7C
:100430008C8D8E110CC00FB607FCFACFE889F989B4
:10044000808185FFF5CFCE010E94C701F1CFEB8DF2
:10045000EC0FFD2FF11DE35AFF4FF0829FB7F89488
:100460000B8FEA89FB8980818062CFCFCF93DF93A6
:10047000EC01888D8823B9F0AA89BB89E889F989BC
:100480008C9185FD03C0808186FD0DC00FB607FCF1
:10049000F7CF8C9185FFF2CF808185FFEDCFCE0124
:1004A0000E94C701E9CFDF91CF910895BF92CF920B
:1004B000DF92EF92FF920F931F93CF93DF938C0104
:1004C000B42E6C018EE0C80ED11CD0E0C0E0E62E48
:1004D000F12CB7010C2E02C0759567950A94E2F7CE
:1004E0006170F60181916F010E94A6002196CB15E3
:1004F00080F361E0F80185850E94A60060E0F801C4
:100500008585DF91CF911F910F91FF90EF90DF9044
:10051000CF90BF900C94A600FC0186898F3F71F0AC
:1005200021853285662329F0232B31F461E00C9478
:10053000A60021303105D1F360E0F9CF0895EF92A4
:10054000FF921F93CF93DF93EC01162F7A01862F32
:100550000E9487001E8BFA86E986E881F98104846F
:10056000F585E02D60E0CE01DF91CF911F91FF90E6
:10057000EF9009940F931F93CF93DF93EC01162F05
:10058000042F61E0413009F060E08B850E94A600F5
:100590008C858F3F19F060E00E94A600023079F050
:1005A0008C8148E084FD0CC0612F70E084E075957B
:1005B00067958A95E1F744E0CE010E94560244E037
:1005C000612FCE01DF91CF911F910F910C945602B4
:1005D000DC01ED91FC910684F785E02D41E0099561
:1005E00081E090E00895DC01ED91FC910684F785AF
:1005F000E02D40E00994CF93DF93CDB7DEB7289785
:100600000FB6F894DEBF0FBECDBF409100015091F0
:10061000010160910201709103014D835E836F833C
:100620007887409104015091050160910601709115
:10063000070149835A836B837C832091FF018217D2
:1006400010F08FEF820F90E0309100028C0F9D1F11
:10065000FC01303181F4243071F46181606888EFED
:1006600091E028960FB6F894DEBF0FBECDBFDF91A4
:10067000CF910C94F3026581F1CF0F931F93CF9329
:10068000DF93EC01423018F08C8188608C834F83BB
:100690006887222329F0413019F48C8184608C838F
:1006A00064E670E080E090E00E9417016C8164FDD8
:1006B0005CC0E881F9810684F785E02D42E063E0C3
:1006C000CE0109958BE496E40197F1F7E881F98171
:1006D0000684F785E02D42E063E0CE01099503E54D
:1006E00012E0C8010197F1F7E881F9810684F785E6
:1006F000E02D42E063E0CE010995C8010197F1F7D2
:10070000E881F9810684F785E02D42E062E0CE01C0
:100710000995C8010197F1F76C816062CE010E94D2
:10072000F3028BEE90E00197F1F784E08D836CE0AB
:10073000CE010E94F30261E0CE010E94F3028BE33E
:100740009FE10197F1F782E08E8366E0CE010E947F
:10075000F302E881F9810484F585E02D6FEFCE0185
:10076000DF91CF911F910F9109946062CE010E9499
:10077000F3028BE496E40197F1F76C816062CE019D
:100780000E94F30203E512E0C8010197F1F76C81C2
:100790006062CE010E94F302BCCF089508950895CF
:1007A00090E080E008950E94DC09FB0101900020A8
:1007B000E9F73197AF01461B570BDC01ED91FC9136
:1007C0000280F381E02D09948F929F92AF92BF92A5
:1007D000EF92FF920F931F93CF93DF93CDB7DEB7C6
:1007E000A1970FB6F894DEBF0FBECDBF7C01FA0112
:1007F000CB0119A2223008F42AE08E010F5D1F4FB1
:10080000822E912CB12CA12CBF01A50194010E9434
:100810007807F901CA016A300CF5605DD8016E9362
:100820008D01232B242B252B79F790E080E0109766
:1008300021F0BD01C7010E94D503A1960FB6F8941F
:10084000DEBF0FBECDBFDF91CF911F910F91FF9003
:10085000EF90BF90AF909F908F900895695CDECF2E
:100860002F923F924F925F926F927F928F929F92C0
:10087000AF92BF92CF92DF92EF92FF921F93CF93EE
:10088000DF93EC016A017B01722EAB019601CB0173
:10089000B6010E94D7096EE271E0811126C04601BF
:1008A0005701E894B7F82FEF3FEF4FE75FE7C50137
:1008B000B4010E94D70981110CC02FEF3FEF4FE721
:1008C0005FE7C501B4010E940D0862E371E01816EC
:1008D00064F02FEF3FEF4FE75FE4C701B6010E94DE
:1008E00065091816B4F466E371E0CE01DF91CF918B
:1008F0001F91FF90EF90DF90CF90BF90AF909F90AF
:100900008F907F906F905F904F903F902F900C94BE
:10091000D5032FEF3FEF4FE75FECC701B6010E9411
:100920000D0887FDE0CF20E030E0A901C701B60146
:100930000E940D08312C212C87FF0DC0E881F98120
:100940000190F081E02D6DE2CE0109951C01F7FACE
:10095000F094F7F8F09410E060E070E080E09FE33E
:10096000711641F020E030E040E251E40E941208AC
:100970001F5FF6CFA70196010E94A1072B013C0142
:100980000E9484084B015C012AE0BC01A401CE0155
:100990000E94E4037C01E20CF31C1123E1F1C50188
:1009A000B4010E94B3089B01AC01C301B2010E94D3
:1009B000A0074B015C01E881F9810190F081E02DF5
:1009C0006EE2CE010995E80EF91E115020F120E0EB
:1009D00030E040E251E4C501B4010E946A092B01F4
:1009E0003C010E9484084B01B12CA12C2AE0B501E6
:1009F000A401CE010E94E403E80EF91EC501B40172
:100A00000E94B3089B01AC01C301B2010E94A00780
:100A10004B015C01DACFC701DF91CF911F91FF90AD
:100A2000EF90DF90CF90BF90AF909F908F907F908E
:100A30006F905F904F903F902F9008951F920F926C
:100A40000FB60F9211242F933F938F939F93AF93E1
:100A5000BF938091530190915401A0915501B091A1
:100A600056013091520123E0230F2D3758F501969E
:100A7000A11DB11D20935201809353019093540105
:100A8000A0935501B0935601809157019091580160
:100A9000A0915901B0915A010196A11DB11D8093F9
:100AA000570190935801A0935901B0935A01BF91F7
:100AB000AF919F918F913F912F910F900FBE0F900B
:100AC0001F90189526E8230F0296A11DB11DD2CFC5
:100AD0001F920F920FB60F9211242F933F934F93B3
:100AE0005F936F937F938F939F93AF93BF93EF9396
:100AF000FF938BE591E00E94C701FF91EF91BF91B9
:100B0000AF919F918F917F916F915F914F913F91A5
:100B10002F910F900FBE0F901F9018951F920F925C
:100B20000FB60F9211242F938F939F93EF93FF9300
:100B3000E0916B01F0916C018081E0917101F09185
:100B4000720182FD1BC09081809174018F5F8F7351
:100B500020917501821741F0E0917401F0E0E55AAF
:100B6000FE4F958F80937401FF91EF919F918F912C
:100B70002F910F900FBE0F901F9018958081F4CF8A
:100B8000CF93DF9310925E0110925D0188EE93E0A7
:100B9000A0E0B0E080935F0190936001A0936101B9
:100BA000B09362018CE091E090935C0180935B01D3
:100BB00085EC90E0909368018093670184EC90E06D
:100BC00090936A018093690180EC90E090936C01AE
:100BD00080936B0181EC90E090936E0180936D01A6
:100BE00082EC90E09093700180936F0186EC90E02E
:100BF00090937201809371011092740110927501AB
:100C000010927601109277011092FB011092FA0176
:100C10008EE191E09093F9018093F8018CE080934C
:100C200003028FEF809304028BE08093050285E03E
:100C30008093060284E08093070283E08093080299
:100C400082E08093090210920A0210920B02109225
:100C50000C0210920D02C6E0D2E089910E9487003A
:100C600082E0CA30D807C9F7809103020E9487004A
:100C7000809104028F3F11F00E948700809105024D
:100C80000E9487001092FC0160E0809103020E94A4
:100C9000A60060E0809105020E94A60080910402F7
:100CA0008F3F19F060E00E94A6008FEF80930E0244
:100CB0001092020210920102DF91CF910895789470
:100CC00084B5826084BD84B5816084BD85B5826051
:100CD00085BD85B5816085BD80916E008160809302
:100CE0006E0010928100809181008260809381006B
:100CF000809181008160809381008091800081607B
:100D0000809380008091B10084608093B1008091D5
:100D1000B00081608093B00080917A0084608093FD
:100D20007A0080917A00826080937A0080917A00C4
:100D3000816080937A0080917A00806880937A0045
:100D40001092C10020E042E060E188EF91E00E9453
:100D50003D03E0916B01F0916C0182E08083E091B2
:100D60006701F09168011082E0916901F0916A01D8
:100D70008FEC808310927301E0916F01F09170010C
:100D800086E08083E0916D01F0916E018081806149
:100D90008083E0916D01F0916E0180818860808395
:100DA000E0916D01F0916E01808180688083E09117
:100DB0006D01F0916E0180818F7D808380E4B82E7B
:100DC000CBE3DFE100E010E0B0927C0080917A009C
:100DD000806480937A0080917A0086FDFCCF6091D8
:100DE000780070917900072E000C880B990B0E94F7
:100DF000B50820E030EC4FE754E40E94120820E0F0
:100E000030E040EA50E40E946A096B017C0122E074
:100E1000BC01A6018BE591E00E9430046AE371E019
:100E20008BE591E00E94D50322E732E645EC54ECD5
:100E3000C701B6010E946A0929E13BE140E255E49D
:100E40000E94A1072B013C01A7019601C701B60131
:100E50000E946A0926E839E843E753E40E946A09D8
:100E60009B01AC01C301B2010E94A1072B013C010F
:100E700061E088EF91E00E94F302CE010197F1F763
:100E800080E00E94FB026DE371E088EF91E00E9438
:100E9000D50324E0B701A60188EF91E00E94300459
:100EA00081E00E94FB0267E471E088EF91E00E941C
:100EB000D50322E0B301A20188EF91E00E94300443
:100EC0006EE471E088EF91E00E94D50368EE73E074
:100ED00080E090E00E9417010115110509F474CF1C
:100EE0000E94B301882309F46FCF0E9400006CCFE9
:100EF000A1E21A2EAA1BBB1BFD010DC0AA1FBB1F1E
:100F0000EE1FFF1FA217B307E407F50720F0A21B8F
:100F1000B30BE40BF50B661F771F881F991F1A94FC
:100F200069F760957095809590959B01AC01BD0126
:100F3000CF010895EE0FFF1F0590F491E02D099465
:100F40005058BB27AA270E94B8070C942B090E946F
:100F50001D0938F00E94240920F039F49F3F19F44C
:100F600026F40C941A090EF4E095E7FB0C9414098E
:100F7000E92F0E943C0958F3BA17620773078407E8
:100F8000950720F079F4A6F50C945E090EF4E0952F
:100F90000B2EBA2FA02D0B01B90190010C01CA0133
:100FA000A0011124FF27591B99F0593F50F4503EDE
:100FB00068F11A16F040A22F232F342F4427585FD0
:100FC000F3CF469537952795A795F0405395C9F7E8
:100FD0007EF41F16BA0B620B730B840BBAF09150A0
:100FE000A1F0FF0FBB1F661F771F881FC2F70EC03F
:100FF000BA0F621F731F841F48F487957795679512
:10100000B795F7959E3F08F0B0CF9395880F08F0FD
:101010009927EE0F9795879508950E94F00808F498
:1010200081E008950E9426080C942B090E9424094F
:1010300058F00E941D0940F029F45F3F29F00C94FC
:10104000140951110C945F090C941A090E943C096F
:1010500068F39923B1F3552391F3951B550BBB27E7
:10106000AA2762177307840738F09F5F5F4F220F2C
:10107000331F441FAA1FA9F335D00E2E3AF0E0E823
:1010800032D091505040E695001CCAF72BD0FE2F6D
:1010900029D0660F771F881FBB1F26173707480701
:1010A000AB07B0E809F0BB0B802DBF01FF279358B9
:1010B0005F4F3AF09E3F510578F00C9414090C9460
:1010C0005F095F3FE4F3983ED4F386957795679583
:1010D000B795F7959F5FC9F7880F911D96958795EE
:1010E00097F90895E1E0660F771F881FBB1F62170D
:1010F00073078407BA0720F0621B730B840BBA0BCB
:10110000EE1F88F7E09508950E94440988F09F57E4
:1011100098F0B92F9927B751B0F0E1F0660F771F1B
:10112000881F991F1AF0BA95C9F714C0B13091F011
:101130000E945E09B1E008950C945E09672F782F34
:101140008827B85F39F0B93FCCF3869577956795D6
:10115000B395D9F73EF490958095709561957F4F42
:101160008F4F9F4F0895E89409C097FB3EF49095E8
:101170008095709561957F4F8F4F9F4F9923A9F070
:10118000F92F96E9BB279395F695879577956795FF
:10119000B795F111F8CFFAF4BB0F11F460FF1BC043
:1011A0006F5F7F4F8F4F9F4F16C0882311F096E9D6
:1011B00011C0772321F09EE8872F762F05C0662384
:1011C00071F096E8862F70E060E02AF09A95660F3D
:1011D000771F881FDAF7880F9695879597F90895F6
:1011E000990F0008550FAA0BE0E8FEEF1616170638
:1011F000E807F907C0F012161306E407F50798F0A0
:10120000621B730B840B950B39F40A2661F0232BB8
:10121000242B252B21F408950A2609F4A140A69534
:101220008FEF811D811D089597F99F6780E870E019
:1012300060E008959FEF80EC089500240A9416164C
:10124000170618060906089500240A9412161306B4
:10125000140605060895092E0394000C11F4882342
:1012600052F0BB0F40F4BF2B11F460FF04C06F5F5E
:101270007F4F8F4F9F4F089557FD9058440F551F34
:1012800059F05F3F71F04795880F97FB991F61F008
:101290009F3F79F087950895121613061406551F7F
:1012A000F2CF4695F1DF08C0161617061806991FEB
:1012B000F1CF86957105610508940895E894BB27E0
:1012C00066277727CB0197F908950E94F00808F464
:1012D0008FEF08950E947D090C942B090E941D092F
:1012E00038F00E94240920F0952311F00C94140981
:1012F0000C941A0911240C945F090E943C0970F3A4
:10130000959FC1F3950F50E0551F629FF001729FAA
:10131000BB27F00DB11D639FAA27F00DB11DAA1FB9
:10132000649F6627B00DA11D661F829F2227B00D06
:10133000A11D621F739FB00DA11D621F839FA00D91
:10134000611D221F749F3327A00D611D231F849FE1
:10135000600D211D822F762F6A2F11249F57504038
:101360009AF0F1F088234AF0EE0FFF1FBB1F661FB3
:10137000771F881F91505040A9F79E3F510580F07C
:101380000C9414090C945F095F3FE4F3983ED4F386
:10139000869577956795B795F795E7959F5FC1F720
:1013A000FE2B880F911D9695879597F908950E94B9
:1013B000F008880B990B089581E090E0F8940C9464
:0613C000E109F894FFCFE3
:1013C600004014540040105000000000E90149019B
:1013D60076013602A7018501990100000000E802A6
:1013E6004901D003CF033D039F028C02BA026E610E
:1013F6006E00696E66006F7666000D0A00566F6CA9
:10140600746167653A200054656D703A2000204388
:021416000000D4
:00000001FF
