:100000000C9434000C943E000C943E000C943E0082
:100010000C943E000C943E000C943E000C943E0068
:100020000C943E000C943E000C943E000C943E0058
:100030000C943E000C943E000C943E000C943E0048
:100040000C943E000C943E000C943E000C943E0038
:100050000C943E000C943E000C943E000C943E0028
:100060000C943E000C943E0011241FBECFEFD8E04C
:10007000DEBFCDBF0E9466000C9481000C9400008E
:10008000CF93DF9300D000D0CDB7DEB7DC0149833A
:100090005A836B837C83FE01319630E020E091919E
:1000A000A9014A0F5B1FF999FECF52BD41BD90BD1A
:1000B000FA9AF99A2F5F3F4F2430310581F70F905C
:1000C0000F900F900F90DF91CF9108954DE155EE75
:1000D00066E270E490E080E00E9440004EED56E35E
:1000E00067E87BE384E090E00E94400048E15EE83E
:1000F0006EE576EB88E090E00E94400090E080E0C2
:060100000895F894FFCF02
:00000001FF
