:100000000C9475000C9492000C9492000C94920045
:100010000C9492000C9492000C9492000C94920018
:100020000C9492000C9492000C9492000C94920008
:100030000C9492000C9492000C9492000C949200F8
:100040000C9492000C9492000C9492000C949200E8
:100050000C9492000C9492000C9492000C949200D8
:100060000C9492000C94920007634236B79BD8A779
:100070001A39685618AEBAAB558C1D3CB7CC5763CD
:10008000BD6DEDFD753EF6177231BF000000803F7B
:1000900008000000BE922449123EABAAAA2ABECD97
:1000A000CCCC4C3E00000080BEABAAAAAA3E000009
:1000B0000000BF000000803F000000000008417801
:1000C000D3BB4387D1133D190E3CC3BD4282AD2B38
:1000D0003E68EC8276BED98FE1A93E4C80EFFFBE30
:1000E00001C4FF7F3F000000000011241FBECFEFBE
:1000F000D8E0DEBFCDBF11E0A0E0B1E0E4EEFFE06C
:1001000002C005900D92A632B107D9F721E0A6E210
:10011000B1E001C01D92AA32B207E1F70E94CB0103
:100120000C94F0070C940000CF93DF9300D000D024
:10013000CDB7DEB79E012B5F3F4FFE01319690E0B9
:100140008E1B9F0BAC014E0F5F1F52BD41BDF89A35
:1001500040B54193E217F307A9F769817A818B8152
:100160009C810F900F900F900F90DF91CF91089589
:1001700080FF19C05D9A81FF18C05C9A82FF17C08A
:100180005B9A83FF16C05A9A2B9A8FE891E00197E9
:10019000F1F700C000002B988FE891E00197F1F78C
:1001A00000C0000008955D98E6CF5C98E7CF5B98AB
:1001B000E8CF5A98E9CFCF93C82F2C9A82958F70A9
:1001C0000E94B8008C2F0E94B8008FE39FE1019736
:1001D000F1F700C00000CF910895CF93C82F2C985D
:1001E00082958F700E94B8008C2F0E94B8008FE318
:1001F0009FE10197F1F700C00000CF9108952F9281
:100200003F924F925F926F927F928F929F92AF92A6
:10021000BF92CF92DF92EF92FF920F931F93CF93F3
:10022000DF936B017C015A01BA01550F880B990BC2
:100230000E94CD039B01AC0160E070E080E291E49C
:100240000E94C604A70196010E9459040E94160547
:100250000E949503162F072F382E292E262F372F71
:10026000482F592FC1E0D0E06AE0462E512C612C76
:10027000712C7E018FEFE81AF80A12161306140685
:1002800015060CF44AC0C7010E94CB066C01FC01A4
:10029000EC0FFD1F10827F01912C812C9AE0492EDA
:1002A000512C612C712C612F702F832D922DA30165
:1002B00092010E948A06605DF70162937F01122F0E
:1002C000032F342E252EFFEF8F1A9F0AA814B9048E
:1002D00051F7CA19DB09F601EC0FFD1F31978EE2C9
:1002E000808322978AE0882E912CA12CB12CD7FFF5
:1002F0001CC0C601DF91CF911F910F91FF90EF902D
:10030000DF90CF90BF90AF909F908F907F906F9035
:100310005F904F903F902F900895CA01B901A301BB
:1003200092010E948A06E701A4CF7601EC0EFD1E21
:10033000612F702F832D922DA50194010E948A06B2
:10034000605DF7016083122F032F342E252E219735
:10035000CECFEF92FF920F931F93CF93DF938C0139
:10036000EC0109900020E9F72197C81BD90B7C010B
:10037000C701801B910B8C179D073CF0DF91CF913B
:100380001F910F91FF90EF900895F70181917F01E8
:100390000E94DB00EDCF80917C00806480937C0024
:1003A00080917A00816080937A0080917A008260E7
:1003B00080937A0080917A00846080937A008091A3
:1003C0007A00806880937A0084B1886184B98AB1A8
:1003D0008C638AB92FEF89EF90E0215080409040E4
:1003E000E1F700C0000083E00E94B8008FE19EE4C6
:1003F0000197F1F700C0000083E00E94B8008FE190
:1004000093E00197F1F700C0000083E00E94B8007C
:100410008FE193E00197F1F700C0000082E00E94B5
:10042000B80088E20E94ED008CE00E94ED0081E0BF
:100430000E94ED0086E00E94ED0080E00E949400A2
:100440004B015C0184E00E9494006B017C0188E018
:100450000E94940080E80E94ED0086E091E00E94F6
:10046000A90180EC0E94ED008DE091E00E94A901BD
:100470009FEF23ED80E3915020408040E1F700C0E2
:10048000000080917A00806480937A0080917A00E5
:1004900086FDFCCF609178008091790090E0982FE4
:1004A0008827680F792F711D072E000C880B990B78
:1004B0000E94CD0320E030EC4FE754E40E94230378
:1004C00020E030E040EA50E40E9459042B013C0156
:1004D00045E050E00E94FF008C01A5019401C3019A
:1004E000B2010E94B602A70196010E94230320E0F8
:1004F00030E048EC52E40E9459040E94160520E0C6
:1005000030E048EC52E40E94230342E050E00E94B5
:10051000FF00EC0186E80E94ED0084E191E00E947A
:10052000A90186E80E94ED00C8010E94A90181E2AC
:1005300091E00E94A901C8010E94670786EC0E9411
:10054000ED0084E191E00E94A90186EC0E94ED009B
:10055000CE010E94A9018FED0E94DB0083E291E0B1
:100560000E94A901CE010E94670782CF5058BB2785
:10057000AA270E94CE020C941F040E94110438F096
:100580000E94180420F039F49F3F19F426F40C94CB
:100590000E040EF4E095E7FB0C940804E92F0E948A
:1005A000300458F3BA17620773078407950720F0E1
:1005B00079F4A6F50C9452040EF4E0950B2EBA2FA4
:1005C000A02D0B01B90190010C01CA01A001112459
:1005D000FF27591B99F0593F50F4503E68F11A1605
:1005E000F040A22F232F342F4427585FF3CF469596
:1005F00037952795A795F0405395C9F77EF41F16B8
:10060000BA0B620B730B840BBAF09150A1F0FF0F81
:10061000BB1F661F771F881FC2F70EC0BA0F621F6D
:10062000731F841F48F4879577956795B795F7955D
:100630009E3F08F0B0CF9395880F08F09927EE0FF2
:100640009795879508950E9437030C941F040E9484
:10065000180458F00E94110440F029F45F3F29F07B
:100660000C94080451110C9453040C940E040E9431
:10067000300468F39923B1F3552391F3951B550B7F
:10068000BB27AA2762177307840738F09F5F5F4F65
:10069000220F331F441FAA1FA9F335D00E2E3AF0A4
:1006A000E0E832D091505040E695001CCAF72BD0BC
:1006B000FE2F29D0660F771F881FBB1F261737070D
:1006C0004807AB07B0E809F0BB0B802DBF01FF273F
:1006D00093585F4F3AF09E3F510578F00C94080410
:1006E0000C9453045F3FE4F3983ED4F386957795DA
:1006F0006795B795F7959F5FC9F7880F911D9695F8
:10070000879597F90895E1E0660F771F881FBB1F53
:10071000621773078407BA0720F0621B730B840B00
:10072000BA0BEE1F88F7E09508950E949C03689429
:10073000B1110C94530408950E94380488F09F5717
:1007400098F0B92F9927B751B0F0E1F0660F771FF5
:10075000881F991F1AF0BA95C9F714C0B13091F0EB
:100760000E945204B1E008950C945204672F782F30
:100770008827B85F39F0B93FCCF3869577956795B0
:10078000B395D9F73EF490958095709561957F4F1C
:100790008F4F9F4F0895E89409C097FB3EF49095C2
:1007A0008095709561957F4F8F4F9F4F9923A9F04A
:1007B000F92F96E9BB279395F695879577956795D9
:1007C000B795F111F8CFFAF4BB0F11F460FF1BC01D
:1007D0006F5F7F4F8F4F9F4F16C0882311F096E9B0
:1007E00011C0772321F09EE8872F762F05C066235E
:1007F00071F096E8862F70E060E02AF09A95660F17
:10080000771F881FDAF7880F9695879597F90895CF
:1008100097F99F6780E870E060E008959FEF80ECB3
:10082000089500240A941616170618060906089556
:1008300000240A9412161306140605060895092EBC
:100840000394000C11F4882352F0BB0F40F4BF2B2B
:1008500011F460FF04C06F5F7F4F8F4F9F4F08956B
:1008600057FD9058440F551F59F05F3F71F0479561
:10087000880F97FB991F61F09F3F79F08795089546
:10088000121613061406551FF2CF4695F1DF08C065
:10089000161617061806991FF1CF86957105610582
:1008A00008940895E894BB2766277727CB0197F92A
:1008B00008950E946C040C941F040E94110438F0E7
:1008C0000E94180420F0952311F00C9408040C9455
:1008D0000E0411240C9453040E94300470F3959F6D
:1008E000C1F3950F50E0551F629FF001729FBB2727
:1008F000F00DB11D639FAA27F00DB11DAA1F649FC3
:100900006627B00DA11D661F829F2227B00DA11D75
:10091000621F739FB00DA11D621F839FA00D611DFB
:10092000221F749F3327A00D611D231F849F600D1C
:10093000211D822F762F6A2F11249F5750409AF045
:10094000F1F088234AF0EE0FFF1FBB1F661F771FD1
:10095000881F91505040A9F79E3F510580F00C949C
:1009600008040C9453045F3FE4F3983ED4F3869557
:1009700077956795B795F795E7959F5FC1F7FE2B3C
:10098000880F911D9695879597F90895FA01EE0FB6
:10099000FF1F309621053105A1F16115710561F444
:1009A0008038BFE39B0749F168949038810561F076
:1009B0008038BFEF9B0741F099234AF5FF3FE105DF
:1009C0003105210519F1E8940894E795D901AA2386
:1009D00029F4AB2FBE2FF85FD0F310C0FF5F70F487
:1009E000A695E0F7F73950F019F0FF3A38F49F7701
:1009F0009F930DD00F9007FC9058089546F00C94EB
:100A00000E0460E070E080E89FE308954FE79F7771
:100A10005F934F933F932F930E940E062F913F9128
:100A20004F915F910E9459040C9442050E94380432
:100A3000E8F09E37E8F09639B8F49E3848F4672F0E
:100A4000782F8827985FF9CF869577956795939546
:100A50009539D0F3B62FB1706B0F711D811D20F445
:100A600087957795679593950C9474050C948F05ED
:100A70000C94530429F416F00C9408040C945204BA
:100A80000C940E040E943804A8F39638A0F707F8D7
:100A90000F92E8942BE33AEA48EB5FE70E946F0479
:100AA0000F920F920F924DB75EB70F920E945606AB
:100AB000E8E6F0E00E949D054F915F91EF91FF9174
:100AC000E595EE1FFF1F49F0FE57E0684427EE0F43
:100AD000441FFA95E1F74195550B0E94D0050F9000
:100AE00007FE0C94C4050895882371F4772321F040
:100AF0009850872B762F07C0662311F499270DC0D5
:100B00009051862B70E060E02AF09A95660F771F6F
:100B1000881FDAF7880F9695879597F908959F3F74
:100B200031F0915020F4879577956795B795880FA8
:100B3000911D9695879597F90895DF93CF931F930D
:100B40000F93FF92EF92DF927B018C01689406C0B5
:100B5000DA2EEF010E946C04FE01E894A591259124
:100B6000359145915591A6F3EF010E94CE02FE0109
:100B70009701A801DA9469F7DF90EF90FF900F9149
:100B80001F91CF91DF9108959B01AC0160E070E06F
:100B900080E89FE30C9423030C9408040C948F05C5
:100BA0000E943804D8F39923C9F3940F511DA3F37D
:100BB0009150504094F059F0882332F0660F771F1F
:100BC000881F91505040C1F79E3F51052CF7880F68
:100BD000911D9695879597F908955F3FACF0983EE3
:100BE0009CF0BB27869577956795B79508F4B1601B
:100BF0009395C1F7BB0F58F711F460FFE8CF6F5F13
:100C00007F4F8F4F9F4FE3CF0C94530416F00C94FB
:100C10008F050C940E0468940C9408040E94380408
:100C2000A8F39923C1F3AEF3DF93CF931F930F93F0
:100C3000FF92C92FDD2788232AF02197660F771F9F
:100C4000881FDAF720E030E040E85FEB9FE3883967
:100C500020F0803E38F021968F770E94B702E0E9BD
:100C6000F0E004C00E94B702EDEBF0E00E949D05A9
:100C70008B01BE01EC01FB2E6F5771097595771F33
:100C8000880B990B0E94CD0328E132E741E35FE333
:100C90000E946C04AF2D9801AE01FF900F911F913F
:100CA000CF91DF910E94CE020C941F04FA01DC0167
:100CB000AA0FBB1F9B01AC01BF5728F42227332783
:100CC0004427507820C0B75190F4AB2F00244695AC
:100CD00037952795011CA395D2F3002071F0220FC0
:100CE000331F441FB395DAF30ED00C94B602613073
:100CF0007105A0E88A07B94630F49B01AC0166276C
:100D0000772788279078309621F02083318342839B
:100D100053830895052E97FB1EF400940E94A106AC
:100D200057FD07D00E94A90607FC03D04EF40C948F
:100D3000A10650954095309521953F4F4F4F5F4FFD
:100D4000089590958095709561957F4F8F4F9F4F37
:100D50000895A1E21A2EAA1BBB1BFD010DC0AA1FFC
:100D6000BB1FEE1FFF1FA217B307E407F50720F014
:100D7000A21BB30BE40BF50B661F771F881F991F8F
:100D80001A9469F760957095809590959B01AC01D8
:100D9000BD01CF0108950F931F93CF93DF9382304E
:100DA000910510F482E090E0E0912801F091290192
:100DB00030E020E0B0E0A0E0309799F42115310553
:100DC00009F44AC0281B390B24303105D8F58A8133
:100DD0009B816115710589F1FB0193838283FE017B
:100DE00011C0408151810281138148175907E0F0F9
:100DF0004817590799F4109761F012960C931297BF
:100E000013961C933296CF01DF91CF911F910F91D2
:100E100008950093280110932901F4CF211531057D
:100E200051F04217530738F0A901DB019A01BD01C7
:100E3000DF01F801C1CFEF01F9CF90932901809331
:100E40002801CDCFFE01E20FF31F81939193225031
:100E5000310939832883D7CF20912601309127018A
:100E6000232B41F42091020130910301309327019B
:100E700020932601209100013091010121153105B7
:100E800041F42DB73EB74091040150910501241B58
:100E9000350BE0912601F0912701E217F307A0F44A
:100EA0002E1B3F0B2817390778F0AC014E5F5F4FC0
:100EB0002417350748F04E0F5F1F509327014093CA
:100EC0002601819391939FCFF0E0E0E09CCFCF93F8
:100ED000DF930097E9F0FC01329713821282A09110
:100EE0002801B0912901ED0130E020E01097A1F434
:100EF00020813181820F931F20912601309127019B
:100F00002817390709F061C0F0932701E093260103
:100F1000DF91CF910895EA01CE17DF07E8F54A8106
:100F20005B819E0141155105B1F7E901FB83EA831D
:100F300049915991C40FD51FEC17FD0761F48081C9
:100F400091810296840F951FE9019983888382819C
:100F500093819B838A83F0E0E0E012968D919C91CF
:100F600013970097B9F52D913C911197CD010296F9
:100F7000820F931F209126013091270128173907EE
:100F800039F6309751F51092290110922801B0934B
:100F90002701A0932601BCCFD383C2834081518116
:100FA000840F951FC817D90761F44E5F5F4F888182
:100FB0009981480F591F518340838A819B81938374
:100FC00082832115310509F0B0CFF0932901E09318
:100FD00028019ECFFD01DC01C0CF13821282D7CF42
:040FE000F894FFCFB3
:100FE40000002A018000564F4C543A200054454DCD
:100FF400503A2000202020202020202020202020C3
:061004000056004300004D
:00000001FF
