:020000040000FA
:100000000C945D000C9485000C9485000C94850084
:100010000C9485000C9485000C9485000C9485004C
:100020000C9485000C9485000C9485000C9485003C
:100030000C9485000C9485000C9485000C9485002C
:100040000C94DD020C9485000C9485000C948500C2
:100050000C9485000C9485000C9485000C9485000C
:100060000C9485000C94850000000008000201003B
:100070000003040700000000000000000000000072
:10008000250028002B0000000000240027002A0083
:10009000040404040404040402020202020203032E
:1000A0000303030301020408102040800102040836
:1000B00010200102040810206E0411241FBECFEF8F
:1000C000D8E0DEBFCDBF11E0A0E0B1E0E4EEFDE09E
:1000D00002C005900D92AE32B107D9F721E0AEE231
:1000E000B1E001C01D92AF34B207E1F710E0CDE5F9
:1000F000D0E004C02197FE010E94EA06CC35D1076A
:10010000C9F70E9427030C94F0060C94000090E0BD
:10011000FC01EC55FF4F249180579F4FFC018491C7
:10012000882399F090E0880F991FFC01EA57FF4F50
:10013000A591B491FC01E458FF4F859194918FB73C
:10014000F894EC91E22BEC938FBF089590E0FC01C2
:10015000E859FF4F2491FC01EC55FF4F3491FC010D
:10016000E057FF4FE491EE23C9F0222339F023300A
:1001700001F1A8F4213019F1223029F1F0E0EE0F5D
:10018000FF1FE458FF4FA591B4918FB7F894EC91FD
:10019000611126C030953E233C938FBF08952730D0
:1001A000A9F02830C9F0243049F7809180008F7D74
:1001B00003C0809180008F7780938000DFCF84B56B
:1001C0008F7784BDDBCF84B58F7DFBCF8091B0006E
:1001D0008F778093B000D2CF8091B0008F7DF9CF20
:1001E0003E2BDACF3FB7F8948091330190913401E0
:1001F000A0913501B091360126B5A89B05C02F3FCF
:1002000019F00196A11DB11D3FBFBA2FA92F982F3C
:100210008827BC01CD01620F711D811D911D42E037
:10022000660F771F881F991F4A95D1F70895AF92DF
:10023000BF92CF92DF92EF92FF920F931F93CF93D3
:10024000DF936C017B018B01040F151FEB015E0135
:10025000AE18BF08C017D10759F06991D601ED91CA
:10026000FC910190F081E02DC6010995892B79F769
:10027000C501DF91CF911F910F91FF90EF90DF901B
:10028000CF90BF90AF900895089590E080E00895DA
:10029000FC0101900020E9F73197AF01481B590B91
:1002A000BC0187E391E00C9417018F929F92AF926B
:1002B000BF920F931F93CF93DF93CDB7DEB7A19774
:1002C0000FB6F894DEBF0FBECDBF19A2423008F4BE
:1002D0004AE08E010F5D1F4F842E912CB12CA12C72
:1002E000A50194010E94C806E62FB901CA01EA30AF
:1002F000F4F4E05DD801EE938D01232B242B252B04
:1003000079F790E080E0109719F0CD010E94480144
:10031000A1960FB6F894DEBF0FBECDBFDF91CF918F
:100320001F910F91BF90AF909F908F900895E95CBF
:10033000E1CFCF93DF93EC0160E08E810E94A600B5
:1003400061E08E810E94A60060E08E810E94A6007E
:100350008BE891E00197F1F7DF91CF910895CF926B
:10036000DF92EF92FF920F931F93CF93DF936C0175
:100370007C0187E0E80EF11CD0E0C0E0062F10E021
:10038000B8010C2E02C0759567950A94E2F761706A
:10039000F70181917F010E94A6002196C430D1050A
:1003A00079F7C601DF91CF911F910F91FF90EF90E8
:1003B000DF90CF900C949901CF92DF92EF92FF9251
:1003C0000F931F93CF93DF93EC01F62E642F8C8154
:1003D0000E94A6008D818F3F19F060E00E94A60068
:1003E0000F2D10E08F8584FF25C06E0187E0C80EB9
:1003F000D11CF12CE12CB8010E2C02C0759567952B
:100400000A94E2F76170F60181916F010E94A600E3
:10041000FFEFEF1AFF0A88E0E816F10461F7CE015A
:10042000DF91CF911F910F91FF90EF90DF90CF90D0
:100430000C949901B80184E0759567958A95E1F768
:10044000CE010E94AF016F2DCE01DF91CF911F91A0
:100450000F91FF90EF90DF90CF900C94AF0140E0B0
:10046000682F87E391E00C94DC01CF93DF93823017
:1004700029F49091460198609093460180934A0137
:1004800010924B0180E480934C0180E180934D01F8
:1004900080E580934E0180913B010E94870080910E
:1004A0003C018F3F11F00E94870080913D010E9426
:1004B0008700C7E3D1E09E01275331408091460178
:1004C00084FD0AC084E090E02196281739073CF4A7
:1004D0008E810E948700EFCF88E090E0F5CF8BE31C
:1004E0009DE00197F1F760E080913B010E94A6003A
:1004F00060E080913D010E94A60080913C018F3F09
:1005000019F060E00E94A6008091460184FD39C088
:1005100063E087E391E00E94AF01CBE4D6E4CE0133
:100520000197F1F763E087E391E00E94AF01219723
:10053000F1F763E087E391E00E94AF0183E592E089
:100540000197F1F762E087E391E00E94AF018091AB
:10055000460180620E942F0284E0809347018CE074
:100560000E942F0281E00E942F028BE39FE10197FE
:10057000F1F782E08093480186E0DF91CF910C94FF
:100580002F0280620E942F028BE496E40197F1F71C
:100590008091460180620E942F0283E592E00197DC
:1005A000F1F78091460180620E942F02D0CF41E096
:1005B0000E94DC0181E090E008951F920F920FB637
:1005C0000F9211242F933F938F939F93AF93BF93D9
:1005D00080912F0190913001A0913101B0913201B1
:1005E00030912E0123E0230F2D3758F50196A11DE0
:1005F000B11D20932E0180932F0190933001A09381
:100600003101B09332018091330190913401A09176
:100610003501B09136010196A11DB11D80933301C2
:1006200090933401A0933501B0933601BF91AF91FF
:100630009F918F913F912F910F900FBE0F901F9020
:10064000189526E8230F0296A11DB11DD2CF7894EC
:1006500084B5826084BD84B5816084BD85B58260C7
:1006600085BD85B5816085BD80916E008160809378
:100670006E001092810080918100826080938100E1
:1006800080918100816080938100809180008160F1
:10069000809380008091B10084608093B10080914C
:1006A000B00081608093B00080917A008460809374
:1006B0007A0080917A00826080937A0080917A003B
:1006C000816080937A0080917A00806880937A00BC
:1006D0001092C10082E00E9435028CE091E00E94FD
:1006E000480110E4C0E0D0E010937C0080917A00D3
:1006F000806480937A0080917A0086FDFCCF6091BF
:10070000780070917900072E000C880B990B0E94DD
:10071000A10520E030E040EA50E40E94560620E0C7
:1007200030EC4FE754E40E94FE046B017C01E09141
:100730004A01E23008F043C0E150F0E0E95CFE4FCE
:10074000848980680E942F02A7019601C701B60123
:100750000E94C3068823A9F18BE191E00E94480121
:1007600087E291E00E9448010E94F2006B017C0147
:1007700088EE882E83E0982EA12CB12C0E94F200E6
:100780006C197D098E099F09683E734081059105AA
:10079000A8F321E0821A9108A108B10888EEC80EDA
:1007A00083E0D81EE11CF11C81149104A104B10462
:1007B00029F7209709F498CF0E94000095CFE1E037
:1007C000BCCF46015701E894B7F82FEF3FEF4FE752
:1007D0005FE7C501B4010E94C30681110DC02FEF70
:1007E0003FEF4FE75FE7C501B4010E94F904181617
:1007F0001CF48FE191E0B2CF2FEF3FEF4FE75FE4C2
:10080000C701B6010E94510618161CF483E291E05C
:10081000A5CF2FEF3FEF4FE75FECC701B6010E9476
:10082000F90487FDF3CF20E030E0A901C701B6014C
:100830000E94F90487FF0AC041E06DE287E391E07E
:100840000E94DC01F7FAF094F7F8F09426E137EB18
:1008500041E558E3C701B6010E948D046B017C019C
:100860000E9470054B015C010E949F059B01AC0139
:10087000C701B6010E948C046B017C014AE0C501EE
:10088000B4010E94550141E06EE287E391E00E94CD
:10089000DC0105E0015009F463CF20E030E040E2E4
:1008A00051E4C701B6010E9456064B015C010E944B
:1008B00070056B01F12CE12C4AE0C701B6010E94E2
:1008C0005501C701B6010E949F059B01AC01C501FE
:1008D000B4010E948C046B017C01DCCFE7E3F1E002
:1008E0001382128284E091E0918380838CE0848380
:1008F0008FEF85838BE0868385E0878384E0808724
:1009000083E0818782E082871386148615861686A7
:10091000178681E00C9435025058BB27AA270E9405
:10092000A4040C9417060E94090638F00E941006D1
:1009300020F039F49F3F19F426F40C9406060EF4C7
:10094000E095E7FB0C940006E92F0E94280658F377
:10095000BA17620773078407950720F079F4A6F5A4
:100960000C944A060EF4E0950B2EBA2FA02D0B0125
:10097000B90190010C01CA01A0011124FF27591BE4
:1009800099F0593F50F4503E68F11A16F040A22FEA
:10099000232F342F4427585FF3CF4695379527955B
:1009A000A795F0405395C9F77EF41F16BA0B620B5A
:1009B000730B840BBAF09150A1F0FF0FBB1F661FA1
:1009C000771F881FC2F70EC0BA0F621F731F841FE4
:1009D00048F4879577956795B795F7959E3F08F00A
:1009E000B0CF9395880F08F09927EE0F97958795CC
:1009F00008950E94DC0508F481E008950E94120524
:100A00000C9417060E94100658F00E94090640F048
:100A100029F45F3F29F00C94000651110C944B0609
:100A20000C9406060E94280668F39923B1F3552317
:100A300091F3951B550BBB27AA27621773078407F1
:100A400038F09F5F5F4F220F331F441FAA1FA9F387
:100A500035D00E2E3AF0E0E832D091505040E69575
:100A6000001CCAF72BD0FE2F29D0660F771F881FD6
:100A7000BB1F261737074807AB07B0E809F0BB0BC9
:100A8000802DBF01FF2793585F4F3AF09E3F5105DD
:100A900078F00C9400060C944B065F3FE4F3983E0C
:100AA000D4F3869577956795B795F7959F5FC9F7C6
:100AB000880F911D9695879597F90895E1E0660F47
:100AC000771F881FBB1F621773078407BA0720F0C0
:100AD000621B730B840BBA0BEE1F88F7E095089529
:100AE0000E94300688F09F5798F0B92F9927B75188
:100AF000B0F0E1F0660F771F881F991F1AF0BA95C2
:100B0000C9F714C0B13091F00E944A06B1E00895CF
:100B10000C944A06672F782F8827B85F39F0B93FC1
:100B2000CCF3869577956795B395D9F73EF4909574
:100B30008095709561957F4F8F4F9F4F0895E894F2
:100B400009C097FB3EF490958095709561957F4F15
:100B50008F4F9F4F9923A9F0F92F96E9BB279395C3
:100B6000F695879577956795B795F111F8CFFAF4D3
:100B7000BB0F11F460FF1BC06F5F7F4F8F4F9F4F04
:100B800016C0882311F096E911C0772321F09EE862
:100B9000872F762F05C0662371F096E8862F70E0C8
:100BA00060E02AF09A95660F771F881FDAF7880FA2
:100BB0009695879597F90895990F0008550FAA0BF8
:100BC000E0E8FEEF16161706E807F907C0F0121660
:100BD0001306E407F50798F0621B730B840B950B63
:100BE00039F40A2661F0232B242B252B21F40895B8
:100BF0000A2609F4A140A6958FEF811D811D089555
:100C000097F99F6780E870E060E008959FEF80ECBF
:100C1000089500240A941616170618060906089562
:100C200000240A9412161306140605060895092EC8
:100C30000394000C11F4882352F0BB0F40F4BF2B37
:100C400011F460FF04C06F5F7F4F8F4F9F4F089577
:100C500057FD9058440F551F59F05F3F71F047956D
:100C6000880F97FB991F61F09F3F79F08795089552
:100C7000121613061406551FF2CF4695F1DF08C071
:100C8000161617061806991FF1CF8695710561058E
:100C900008940895E894BB2766277727CB0197F936
:100CA00008950E94DC0508F48FEF08950E946906FC
:100CB0000C9417060E94090638F00E94100620F0D6
:100CC000952311F00C9400060C94060611240C9444
:100CD0004B060E94280670F3959FC1F3950F50E0D4
:100CE000551F629FF001729FBB27F00DB11D639FDE
:100CF000AA27F00DB11DAA1F649F6627B00DA11D84
:100D0000661F829F2227B00DA11D621F739FB00D29
:100D1000A11D621F839FA00D611D221F749F332799
:100D2000A00D611D231F849F600D211D822F762F32
:100D30006A2F11249F5750409AF0F1F088234AF00F
:100D4000EE0FFF1FBB1F661F771F881F915050407B
:100D5000A9F79E3F510580F00C9400060C944B06B9
:100D60005F3FE4F3983ED4F3869577956795B79502
:100D7000F795E7959F5FC1F7FE2B880F911D96951C
:100D8000879597F908950E94DC05880B990B0895C3
:100D9000A1E21A2EAA1BBB1BFD010DC0AA1FBB1F7F
:100DA000EE1FFF1FA217B307E407F50720F0A21BF1
:100DB000B30BE40BF50B661F771F881F991F1A945E
:100DC00069F760957095809590959B01AC01BD0188
:100DD000CF010895EE0FFF1F0590F491E02D0994C7
:100DE000F894FFCF00000000D7021701450144012D
:100DF000505431303020566F6C746167653A006E24
:100E0000616E00696E66006F7666002056202020B5
:020E10000000E0
:107E0000112484B714BE81FFF0D085E080938100F7
:107E100082E08093C00088E18093C10086E0809377
:107E2000C20080E18093C4008EE0C9D0259A86E02C
:107E300020E33CEF91E0309385002093840096BBD3
:107E4000B09BFECF1D9AA8958150A9F7CC24DD24C4
:107E500088248394B5E0AB2EA1E19A2EF3E0BF2EE7
:107E6000A2D0813461F49FD0082FAFD0023811F036
:107E7000013811F484E001C083E08DD089C08234E0
:107E800011F484E103C0853419F485E0A6D080C0E4
:107E9000853579F488D0E82EFF2485D0082F10E0AE
:107EA000102F00270E291F29000F111F8ED06801E7
:107EB0006FC0863521F484E090D080E0DECF843638
:107EC00009F040C070D06FD0082F6DD080E0C81688
:107ED00080E7D80618F4F601B7BEE895C0E0D1E017
:107EE00062D089930C17E1F7F0E0CF16F0E7DF06D8
:107EF00018F0F601B7BEE89568D007B600FCFDCFD4
:107F0000A601A0E0B1E02C9130E011968C91119780
:107F100090E0982F8827822B932B1296FA010C0160
:107F200087BEE89511244E5F5F4FF1E0A038BF0790
:107F300051F7F601A7BEE89507B600FCFDCF97BE46
:107F4000E89526C08437B1F42ED02DD0F82E2BD052
:107F50003CD0F601EF2C8F010F5F1F4F84911BD097
:107F6000EA94F801C1F70894C11CD11CFA94CF0C13
:107F7000D11C0EC0853739F428D08EE10CD085E9AC
:107F80000AD08FE07ACF813511F488E018D01DD067
:107F900080E101D065CF982F8091C00085FFFCCF94
:107FA0009093C60008958091C00087FFFCCF809118
:107FB000C00084FD01C0A8958091C6000895E0E648
:107FC000F0E098E1908380830895EDDF803219F02E
:107FD00088E0F5DFFFCF84E1DECF1F93182FE3DFCA
:107FE0001150E9F7F2DF1F91089580E0E8DFEE27F6
:047FF000FF270994CA
:027FFE00040479
:00000001FF
