:100000000C945D000C9485000C9485000C94850084
:100010000C9485000C9485000C9485000C9485004C
:100020000C9485000C9485000C9485000C9485003C
:100030000C9485000C9485000C9485000C9485002C
:100040000C9405050C9485000C9475050C944F05D3
:100050000C9485000C9485000C9485000C9485000C
:100060000C9485000C94850000000008000201003B
:100070000003040700000000000000000000000072
:10008000250028002B0000000000240027002A0083
:10009000040404040404040402020202020203032E
:1000A0000303030301020408102040800102040836
:1000B0001020010204081020A70511241FBECFEF55
:1000C000D8E0DEBFCDBF11E0A0E0B1E0E0E9F3E1B0
:1000D00002C005900D92A636B107D9F722E0A6E638
:1000E000B1E001C01D92A332B207E1F710E0CDE507
:1000F000D0E004C02197FE010E947F07CC35D107D4
:10010000C9F70E9446060C94C6090C94000090E0C2
:10011000FC01EC55FF4F249180579F4FFC018491C7
:10012000882399F090E0880F991FFC01EA57FF4F50
:10013000A591B491FC01E458FF4F859194918FB73C
:10014000F894EC91E22BEC938FBF089590E0FC01C2
:10015000E859FF4F2491FC01EC55FF4F3491FC010D
:10016000E057FF4FE491EE23C9F0222339F023300A
:1001700001F1A8F4213019F1223029F1F0E0EE0F5D
:10018000FF1FE458FF4FA591B4918FB7F894EC91FD
:10019000611126C030953E233C938FBF08952730D0
:1001A000A9F02830C9F0243049F7809180008F7D74
:1001B00003C0809180008F7780938000DFCF84B56B
:1001C0008F7784BDDBCF84B58F7DFBCF8091B0006E
:1001D0008F778093B000D2CF8091B0008F7DF9CF20
:1001E0003E2BDACF3FB7F89480916B0190916C0170
:1001F000A0916D01B0916E0126B5A89B05C02F3F5F
:1002000019F00196A11DB11D3FBFBA2FA92F982F3C
:100210008827BC01CD01620F711D811D911D42E037
:10022000660F771F881F991F4A95D1F708958F92FF
:100230009F92AF92BF92CF92DF92EF92FF924B01CB
:100240005C010E94F2006B017C010E94F2006C19BB
:100250007D098E099F09683E734081059105A8F3C9
:1002600021E0821A9108A108B10888EEC80E83E047
:10027000D81EE11CF11C81149104A104B10429F7DA
:10028000FF90EF90DF90CF90BF90AF909F908F90B6
:100290000895AF92BF92CF92DF92EF92FF920F93A9
:1002A0001F93CF93DF936C017B018B01040F151F0C
:1002B000EB015E01AE18BF08C017D10759F0699174
:1002C000D601ED91FC910190F081E02DC6010995D8
:1002D000892B79F7C501DF91CF911F910F91FF9085
:1002E000EF90DF90CF90BF90AF900895FC01538DB9
:1002F000448D252F30E0842F90E0821B930B541700
:1003000010F0CF96089501970895FC01918D828D8C
:10031000981761F0A28DAE0FBF2FB11D5D968C9125
:10032000928D9F5F9F73928F90E008958FEF9FEF64
:100330000895FC01918D828D981731F0828DE80F20
:10034000F11D858D90E008958FEF9FEF0895FC01DA
:10035000918D228D892F90E0805C9F4F821B9109A7
:100360008F73992708958FE691E00E94A70121E0FD
:10037000892B09F420E0822F089580E090E0892BFA
:1003800029F00E94B30181110C9400000895FC0132
:10039000A48DA80FB92FB11DA35ABF4F2C91848DE6
:1003A00090E001968F739927848FA689B7892C9343
:1003B000A089B1898C91837080648C93938D848D96
:1003C000981306C00288F389E02D80818F7D808399
:1003D0000895EF92FF920F931F93CF93DF93EC0159
:1003E00081E0888F9B8D8C8D98131AC0E889F989DC
:1003F000808185FF15C09FB7F894EE89FF896083DF
:10040000E889F98980818370806480839FBF81E05F
:1004100090E0DF91CF911F910F91FF90EF900895A1
:10042000F62E0B8D10E00F5F1F4F0F731127E02E7C
:100430008C8D8E110CC00FB607FCFACFE889F989B4
:10044000808185FFF5CFCE010E94C701F1CFEB8DF2
:10045000EC0FFD2FF11DE35AFF4FF0829FB7F89488
:100460000B8FEA89FB8980818062CFCFCF93DF93A6
:10047000EC01888D8823B9F0AA89BB89E889F989BC
:100480008C9185FD03C0808186FD0DC00FB607FCF1
:10049000F7CF8C9185FFF2CF808185FFEDCFCE0124
:1004A0000E94C701E9CFDF91CF910895BF92CF920B
:1004B000DF92EF92FF920F931F93CF93DF938C0104
:1004C000B42E6C018EE0C80ED11CD0E0C0E0E62E48
:1004D000F12CB7010C2E02C0759567950A94E2F7CE
:1004E0006170F60181916F010E94A6002196CB15E3
:1004F00080F361E0F80185850E94A60060E0F801C4
:100500008585DF91CF911F910F91FF90EF90DF9044
:10051000CF90BF900C94A600FC0186898F3F71F0AC
:1005200021853285662329F0232B31F461E00C9478
:10053000A60021303105D1F360E0F9CF0895EF92A4
:10054000FF921F93CF93DF93EC01162F7A01862F32
:100550000E9487001E8BFA86E986E881F98104846F
:10056000F585E02D60E0CE01DF91CF911F91FF90E6
:10057000EF9009940F931F93CF93DF93EC01162F05
:10058000042F61E0413009F060E08B850E94A600F5
:100590008C858F3F19F060E00E94A600023079F050
:1005A0008C8148E084FD0CC0612F70E084E075957B
:1005B00067958A95E1F744E0CE010E94560244E037
:1005C000612FCE01DF91CF911F910F910C945602B4
:1005D000DC01ED91FC910684F785E02D41E0099561
:1005E00081E090E00895DC01ED91FC910684F785AF
:1005F000E02D40E00994CF93DF93CDB7DEB7289785
:100600000FB6F894DEBF0FBECDBF409101015091EF
:10061000020160910301709104014D835E836F8339
:100620007887409105015091060160910701709112
:10063000080149835A836B837C83209113028217BC
:1006400010F08FEF820F90E0309114028C0F9D1FFD
:10065000FC01303181F4243071F4618160688CE0F8
:1006600092E028960FB6F894DEBF0FBECDBFDF91A3
:10067000CF910C94F3026581F1CF61E00E94F30207
:100680008BE39FE10197F1F708950F931F93CF93A9
:10069000DF93EC01423018F08C8188608C834F83AB
:1006A0006887222329F0413019F48C8184608C837F
:1006B00064E670E080E090E00E9417016C8164FDC8
:1006C00057C0E881F9810684F785E02D42E063E0B8
:1006D000CE0109958BE496E40197F1F7E881F98161
:1006E0000684F785E02D42E063E0CE01099503E53D
:1006F00012E0C8010197F1F7E881F9810684F785D6
:10070000E02D42E063E0CE010995C8010197F1F7C1
:10071000E881F9810684F785E02D42E062E0CE01B0
:100720000995C8010197F1F76C816062CE010E94C2
:10073000F3028BEE90E00197F1F784E08D836CE09B
:10074000CE010E94F302CE010E943D0382E08E831F
:1007500066E0CE010E94F302E881F9810484F58508
:10076000E02D6FEFCE01DF91CF911F910F91099492
:100770006062CE010E94F3028BE496E40197F1F7E8
:100780006C816062CE010E94F30203E512E0C801B1
:100790000197F1F76C816062CE010E94F302C1CF34
:1007A00008950895089590E080E00895FC01019077
:1007B0000020E9F73197AF01481B590BBC018CE0D1
:1007C00092E00C9449018F929F92AF92BF920F9347
:1007D0001F93CF93DF93CDB7DEB7A1970FB6F894F1
:1007E000DEBF0FBECDBF19A2423008F44AE08E0131
:1007F0000F5D1F4F842E912CB12CA12CA5019401CB
:100800000E945D07E62FB901CA01EA30F4F4E05D09
:10081000D801EE938D01232B242B252B79F790E023
:1008200080E0109719F0CD010E94D603A1960FB673
:10083000F894DEBF0FBECDBFDF91CF911F910F9116
:10084000BF90AF909F908F900895E95CE1CF4F9259
:100850005F926F927F928F929F92AF92BF92CF9250
:10086000DF92EF92FF920F931F93CF936B017C0166
:10087000742EAC019B010E94BC09882399F08FE281
:1008800091E0CF911F910F91FF90EF90DF90CF906B
:10089000BF90AF909F908F907F906F905F904F90A0
:1008A0000C94D60346015701E894B7F82FEF3FEFB9
:1008B0004FE75FE7C501B4010E94BC0981110DC07B
:1008C0002FEF3FEF4FE75FE7C501B4010E94F2074A
:1008D00018161CF483E391E0D4CF2FEF3FEF4FE7DE
:1008E0005FE4C701B6010E944A0918161CF487E3A9
:1008F00091E0C7CF2FEF3FEF4FE75FECC701B601A5
:100900000E94F20787FDF3CF20E030E0A901C70184
:10091000B6010E94F20710E000E087FF0AC06DE216
:100920008CE092E00E94E8028C01F7FAF094F7F86C
:10093000F094C0E060E070E080E09FE37C1641F05E
:1009400020E030E040E251E40E94F707CF5FF6CFAD
:10095000A70196010E9486072B013C010E946908AD
:100960004B015C014AE00E94E3037C01E00EF11EB2
:10097000CC23C1F1C501B4010E9498089B01AC01D0
:10098000C301B2010E9485074B015C016EE28CE05D
:1009900092E00E94E802E80EF91EC15018F120E032
:1009A00030E040E251E4C501B4010E944F092B013F
:1009B0003C010E9469084B01B12CA12C4AE0C50101
:1009C000B4010E94E303E80EF91EC501B4010E94C0
:1009D00098089B01AC01C301B2010E9485074B013D
:1009E0005C01DBCFC701CF911F910F91FF90EF907A
:1009F000DF90CF90BF90AF909F908F907F906F903F
:100A00005F904F9008950E94C1091F920F920FB6F8
:100A10000F9211242F933F938F939F93AF93BF9384
:100A20008091670190916801A0916901B0916A017C
:100A30003091660123E0230F2D3758F50196A11D53
:100A4000B11D209366018093670190936801A09384
:100A50006901B0936A0180916B0190916C01A09142
:100A60006D01B0916E010196A11DB11D80936B01C6
:100A700090936C01A0936D01B0936E01BF91AF9103
:100A80009F918F913F912F910F900FBE0F901F90CC
:100A9000189526E8230F0296A11DB11DD2CF1F92F3
:100AA0000F920FB60F9211242F933F934F935F93A2
:100AB0006F937F938F939F93AF93BF93EF93FF9326
:100AC0008FE691E00E94C701FF91EF91BF91AF9136
:100AD0009F918F917F916F915F914F913F912F9156
:100AE0000F900FBE0F901F9018951F920F920FB688
:100AF0000F9211242F938F939F93EF93FF93E09185
:100B00007F01F09180018081E0918501F091860163
:100B100082FD1BC09081809188018F5F8F7320912F
:100B20008901821741F0E0918801F0E0E159FE4F20
:100B3000958F80938801FF91EF919F918F912F91D5
:100B40000F900FBE0F901F9018958081F4CFCF9318
:100B5000DF93109272011092710188EE93E0A0E091
:100B6000B0E08093730190937401A0937501B093EA
:100B700076018DE091E09093700180936F0185EC98
:100B800090E090937C0180937B0184EC90E09093C3
:100B90007E0180937D0180EC90E0909380018093B2
:100BA0007F0181EC90E0909382018093810182EC3F
:100BB00090E0909384018093830186EC90E0909381
:100BC000860180938501109288011092890110920C
:100BD0008A0110928B0110920F0210920E028FE187
:100BE00091E090930D0280930C028CE080931702A9
:100BF0008FEF809318028BE08093190285E0809339
:100C00001A0284E080931B0283E080931C0282E03E
:100C100080931D0210921E0210921F021092200259
:100C200010922102CAE1D2E089910E94870082E0FD
:100C3000CE31D807C9F7809117020E9487008091B2
:100C400018028F3F11F00E948700809119020E94C4
:100C500087001092100260E0809117020E94A600A7
:100C600060E0809119020E94A600809118028F3FD7
:100C700019F060E00E94A6008FEF8093220210928C
:100C8000160210921502DF91CF910895789484B5E1
:100C9000826084BD84B5816084BD85B5826085BD78
:100CA00085B5816085BD80916E00816080936E0006
:100CB00010928100809181008260809381008091F8
:100CC00081008160809381008091800081608093A9
:100CD00080008091B10084608093B1008091B00069
:100CE00081608093B00080917A00846080937A0064
:100CF00080917A00826080937A0080917A0081608E
:100D000080937A0080917A00806880937A001092B4
:100D1000C100E0917F01F091800182E08083E09149
:100D20007B01F0917C011082E0917D01F0917E01C8
:100D30008FEC808310928701E0918301F091840110
:100D400086E08083E0918101F09182018081806161
:100D50008083E0918101F0918201808188608083AD
:100D6000E0918101F0918201808180688083E0912F
:100D70008101F091820180818F7D808320E042E0BB
:100D800060E18CE092E00E9445038BE391E00E94D9
:100D9000D60360ED77E080E090E00E9417018CE0E0
:100DA00092E00E943D0381E080930001C0E0D0E02A
:100DB0008091000120E4829FC001112480937C0077
:100DC00080917A00806480937A0080917A0086FD19
:100DD000FCCF6091780070917900072E000C880B91
:100DE000990B0E949A0820E030E040EA50E40E940B
:100DF0004F0920E030EC4FE754E40E94F7076B0105
:100E00007C0128EA3FEA4DEB53EC0E944F092CE8A5
:100E100036E04BE453E40E9486074B015C0126EF69
:100E20003FEE4AEE52E4C701B6010E944F09A70106
:100E300096010E944F099B01AC01C501B4010E94BB
:100E400086074B015C018CE092E00E943D0380E04C
:100E50000E94FB028EE491E00E94D60320E030E085
:100E6000A901C501B4010E94860743E00E9427043E
:100E700085E591E00E94D60381E00E94FB0288E5AF
:100E800091E00E94D60343E0C701B6010E94270407
:100E90008CE591E00E94D60364EF71E080E090E081
:100EA0000E941701209709F483CF0E94B301882381
:100EB00009F47ECF0E9400007BCFA1E21A2EAA1B6C
:100EC000BB1BFD010DC0AA1FBB1FEE1FFF1FA217FA
:100ED000B307E407F50720F0A21BB30BE40BF50BF7
:100EE000661F771F881F991F1A9469F76095709580
:100EF000809590959B01AC01BD01CF010895EE0F47
:100F0000FF1F0590F491E02D09945058BB27AA27A4
:100F10000E949D070C9410090E94020938F00E945B
:100F2000090920F039F49F3F19F426F40C94FF08C6
:100F30000EF4E095E7FB0C94F908E92F0E942109D3
:100F400058F3BA17620773078407950720F079F4FE
:100F5000A6F50C9443090EF4E0950B2EBA2FA02DA4
:100F60000B01B90190010C01CA01A0011124FF2756
:100F7000591B99F0593F50F4503E68F11A16F04051
:100F8000A22F232F342F4427585FF3CF4695379550
:100F90002795A795F0405395C9F77EF41F16BA0B15
:100FA000620B730B840BBAF09150A1F0FF0FBB1FC3
:100FB000661F771F881FC2F70EC0BA0F621F731F0C
:100FC000841F48F4879577956795B795F7959E3F69
:100FD00008F0B0CF9395880F08F09927EE0F9795FA
:100FE000879508950E94D50808F481E008950E942D
:100FF0000B080C9410090E94090958F00E9402097C
:1010000040F029F45F3F29F00C94F90851110C9439
:1010100044090C94FF080E94210968F39923B1F355
:10102000552391F3951B550BBB27AA27621773070E
:10103000840738F09F5F5F4F220F331F441FAA1FA2
:10104000A9F335D00E2E3AF0E0E832D0915050405E
:10105000E695001CCAF72BD0FE2F29D0660F771F0C
:10106000881FBB1F261737074807AB07B0E809F0F2
:10107000BB0B802DBF01FF2793585F4F3AF09E3F77
:10108000510578F00C94F9080C9444095F3FE4F39F
:10109000983ED4F3869577956795B795F7959F5FBA
:1010A000C9F7880F911D9695879597F90895E1E006
:1010B000660F771F881FBB1F621773078407BA0765
:1010C00020F0621B730B840BBA0BEE1F88F7E095C0
:1010D00008950E94290988F09F5798F0B92F992701
:1010E000B751B0F0E1F0660F771F881F991F1AF013
:1010F000BA95C9F714C0B13091F00E944309B1E02C
:1011000008950C944309672F782F8827B85F39F02A
:10111000B93FCCF3869577956795B395D9F73EF4AB
:1011200090958095709561957F4F8F4F9F4F089553
:10113000E89409C097FB3EF4909580957095619571
:101140007F4F8F4F9F4F9923A9F0F92F96E9BB2727
:101150009395F695879577956795B795F111F8CFA3
:10116000FAF4BB0F11F460FF1BC06F5F7F4F8F4F0E
:101170009F4F16C0882311F096E911C0772321F004
:101180009EE8872F762F05C0662371F096E8862F9C
:1011900070E060E02AF09A95660F771F881FDAF7F3
:1011A000880F9695879597F90895990F0008550F20
:1011B000AA0BE0E8FEEF16161706E807F907C0F0DD
:1011C00012161306E407F50798F0621B730B840BE5
:1011D000950B39F40A2661F0232B242B252B21F4BF
:1011E00008950A2609F4A140A6958FEF811D811D5F
:1011F000089597F99F6780E870E060E008959FEF99
:1012000080EC089500240A9416161706180609069D
:10121000089500240A94121613061406050608956C
:10122000092E0394000C11F4882352F0BB0F40F4F4
:10123000BF2B11F460FF04C06F5F7F4F8F4F9F4F34
:10124000089557FD9058440F551F59F05F3F71F0B6
:101250004795880F97FB991F61F09F3F79F087951D
:101260000895121613061406551FF2CF4695F1DFA6
:1012700008C0161617061806991FF1CF8695710536
:10128000610508940895E894BB2766277727CB016A
:1012900097F908950E94D50808F48FEF08950E94E9
:1012A00062090C9410090E94020938F00E94090991
:1012B00020F0952311F00C94F9080C94FF081124E8
:1012C0000C9444090E94210970F3959FC1F3950F76
:1012D00050E0551F629FF001729FBB27F00DB11DBA
:1012E000639FAA27F00DB11DAA1F649F6627B00D4A
:1012F000A11D661F829F2227B00DA11D621F739F33
:10130000B00DA11D621F839FA00D611D221F749F40
:101310003327A00D611D231F849F600D211D822F87
:10132000762F6A2F11249F5750409AF0F1F08823AE
:101330004AF0EE0FFF1FBB1F661F771F881F9150DB
:101340005040A9F79E3F510580F00C94F9080C9489
:1013500044095F3FE4F3983ED4F38695779567950B
:10136000B795F795E7959F5FC1F7FE2B880F911D05
:101370009695879597F908950E94D508880B990B43
:10138000089581E090E0F8940C94C609F894FFCF9A
:1013900001004014540040105000000000E90149D1
:1013A0000176013602A7018501990100000000E8DD
:1013B000024901D303D20345039F028C02BA026E95
:1013C000616E00696E66006F766600505431303091
:1013D0002043616C69622E205374617274005465FD
:1013E0006D703A2000204300563A200020562030ED
:0613F00038263231000036
:00000001FF
