:100000000C9434000C943E000C943E000C943E0082
:100010000C943E000C943E000C943E000C943E0068
:100020000C943E000C943E000C943E000C943E0058
:100030000C943E000C943E000C943E000C943E0048
:100040000C943E000C943E000C943E000C943E0038
:100050000C943E000C943E000C943E000C943E0028
:100060000C943E000C943E0011241FBECFEFD8E04C
:10007000DEBFCDBF0E9447000C94E9020C94000043
:100080009091C00095FFFCCF8093C60008958091A9
:100090007C00806480937C0080917A0081608093F2
:1000A0007A0080917A00826080937A0080917A0051
:1000B000846080937A0080917A00806880937A00CF
:1000C00087E68093C4001092C50088E08093C10049
:1000D00086E08093C200CAE0D0E080917A0080641C
:1000E00080937A0080917A0086FDFCCF6091780041
:1000F0008091790090E0982F8827680F792F711DE3
:10010000072E000C880B990B0E947B0120E030EC3D
:100110004FE754E40E94D10020E030E040EA50E490
:100120000E94070220E030E44CE156E40E940702FE
:100130000E94740220E030E44CE156E40E94D100B9
:100140006B017C0110E000E0C701B6010E94430191
:10015000CB01BE010E94C102805D0E9440000115DA
:10016000110519F48EE20E94400020E030E040E2E8
:1001700051E4C701B6010E9407026B017C010F5FC9
:100180001F4F0630110501F78AE00E9440002FEF53
:1001900083ED90E3215080409040E1F700C00000E3
:1001A0009CCF0E94E5000C94CD010E94C60158F03E
:1001B0000E94BF0140F029F45F3F29F00C94B60182
:1001C00051110C9401020C94BC010E94DE0168F3F1
:1001D0009923B1F3552391F3951B550BBB27AA2700
:1001E00062177307840738F09F5F5F4F220F331F3A
:1001F000441FAA1FA9F335D00E2E3AF0E0E832D002
:1002000091505040E695001CCAF72BD0FE2F29D004
:10021000660F771F881FBB1F261737074807AB07D6
:10022000B0E809F0BB0B802DBF01FF2793585F4F4B
:100230003AF09E3F510578F00C94B6010C940102FF
:100240005F3FE4F3983ED4F3869577956795B7952D
:10025000F7959F5FC9F7880F911D9695879597F938
:100260000895E1E0660F771F881FBB1F62177307B1
:100270008407BA0720F0621B730B840BBA0BEE1FC6
:1002800088F7E09508950E944A016894B1110C9492
:10029000010208950E94E60188F09F5798F0B92F57
:1002A0009927B751B0F0E1F0660F771F881F991FAB
:1002B0001AF0BA95C9F714C0B13091F00E9400024B
:1002C000B1E008950C940002672F782F8827B85F5B
:1002D00039F0B93FCCF3869577956795B395D9F703
:1002E0003EF490958095709561957F4F8F4F9F4F0D
:1002F0000895E89409C097FB3EF490958095709519
:1003000061957F4F8F4F9F4F9923A9F0F92F96E961
:10031000BB279395F695879577956795B795F111D6
:10032000F8CFFAF4BB0F11F460FF1BC06F5F7F4F73
:100330008F4F9F4F16C0882311F096E911C0772385
:1003400021F09EE8872F762F05C0662371F096E88E
:10035000862F70E060E02AF09A95660F771F881F5D
:10036000DAF7880F9695879597F9089597F99F671B
:1003700080E870E060E008959FEF80EC089500242D
:100380000A941616170618060906089500240A94FA
:1003900012161306140605060895092E0394000C80
:1003A00011F4882352F0BB0F40F4BF2B11F460FF0F
:1003B00004C06F5F7F4F8F4F9F4F089557FD905838
:1003C000440F551F59F05F3F71F04795880F97FB19
:1003D000991F61F09F3F79F08795089512161306D3
:1003E0001406551FF2CF4695F1DF08C01616170602
:1003F0001806991FF1CF8695710561050894089537
:10040000E894BB2766277727CB0197F908950E94C8
:100410001A020C94CD010E94BF0138F00E94C6015F
:1004200020F0952311F00C94B6010C94BC0111241A
:100430000C9401020E94DE0170F3959FC1F3950FA9
:1004400050E0551F629FF001729FBB27F00DB11D58
:10045000639FAA27F00DB11DAA1F649F6627B00DE8
:10046000A11D661F829F2227B00DA11D621F739FD1
:10047000B00DA11D621F839FA00D611D221F749FDF
:100480003327A00D611D231F849F600D211D822F26
:10049000762F6A2F11249F5750409AF0F1F088234D
:1004A0004AF0EE0FFF1FBB1F661F771F881F91507A
:1004B0005040A9F79E3F510580F00C94B6010C9472
:1004C00001025F3FE4F3983ED4F3869577956795F4
:1004D000B795F795E7959F5FC1F7FE2B880F911DA4
:1004E0009695879597F908950E94E601E8F09E3762
:1004F000E8F09639B8F49E3848F4672F782F8827AB
:10050000985FF9CF86957795679593959539D0F350
:10051000B62FB1706B0F711D811D20F487957795F3
:10052000679593950C9498020C94B3020C94010275
:10053000882371F4772321F09850872B762F07C0FA
:10054000662311F499270DC09051862B70E060E06E
:100550002AF09A95660F771F881FDAF7880F96950D
:10056000879597F908959F3F31F0915020F4879532
:1005700077956795B795880F911D9695879597F90B
:10058000089597FB072E16F4009407D077FD09D045
:100590000E94D50207FC05D03EF4909581959F4FAF
:1005A0000895709561957F4F0895AA1BBB1B51E17B
:1005B00007C0AA1FBB1FA617B70710F0A61BB70BD3
:1005C000881F991F5A95A9F780959095BC01CD0178
:0605D0000895F894FFCF2E
:00000001FF
