:100000000C949E000C94C6000C94C6000C94C60080
:100010000C94C6000C94C6000C94C6000C94C60048
:100020000C94C6000C94C6000C94C6000C94C60038
:100030000C94C6000C94C6000C94C6000C94C60028
:100040000C9439050C94C6000C94A9050C948305F6
:100050000C94C6000C94C6000C94C6000C94C60008
:100060000C94C6000C94C60007634236B79BD8A711
:100070001A39685618AEBAAB558C1D3CB7CC5763CD
:10008000BD6DEDFD753EF6177231BF000000803F7B
:1000900008000000BE922449123EABAAAA2ABECD97
:1000A000CCCC4C3E00000080BEABAAAAAA3E000009
:1000B0000000BF000000803F000000000008417801
:1000C000D3BB4387D1133D190E3CC3BD4282AD2B38
:1000D0003E68EC8276BED98FE1A93E4C80EFFFBE30
:1000E00001C4FF7F3F000000000000000008000284
:1000F00001000003040700000000000000000000F1
:100100000000250028002B0000000000240027002C
:100110002A00040404040404040402020202020289
:1001200003030303030301020408102040800102BB
:1001300004081020010204081020DB0511241FBE52
:10014000CFEFD8E0DEBFCDBF11E0A0E0B1E0EEE937
:10015000F6E102C005900D92A235B107D9F722E071
:10016000A2E5B1E001C01D92A031B207E1F710E0B5
:10017000CEE9D0E004C02197FE010E948607CD3968
:10018000D107C9F70E9425060C944D0B0C94000072
:1001900090E0FC01EA5DFE4F24918E5E9E4FFC01D3
:1001A0008491882399F090E0880F991FFC01E85F03
:1001B000FE4FA591B491FC01E250FF4F85919491BF
:1001C0008FB7F894EC91E22BEC938FBF089590E0F9
:1001D000FC01E651FF4F2491FC01EA5DFE4F349192
:1001E000FC01EE5EFE4FE491EE23C9F0222339F0CC
:1001F000233001F1A8F4213019F1223029F1F0E087
:10020000EE0FFF1FE250FF4FA591B4918FB7F89406
:10021000EC91611126C030953E233C938FBF089529
:100220002730A9F02830C9F0243049F780918000A8
:100230008F7D03C0809180008F7780938000DFCF17
:1002400084B58F7784BDDBCF84B58F7DFBCF809164
:10025000B0008F778093B000D2CF8091B0008F7DB7
:10026000F9CF3E2BDACF3FB7F894809157019091A8
:100270005801A0915901B0915A0126B5A89B05C01B
:100280002F3F19F00196A11DB11D3FBFBA2FA92F15
:10029000982F8827BC01CD01620F711D811D911D12
:1002A00042E0660F771F881F991F4A95D1F708957E
:1002B0008F929F92AF92BF92CF92DF92EF92FF9276
:1002C0004B015C010E9433016B017C010E943301F0
:1002D0006C197D098E099F09683E7340810591055F
:1002E000A8F321E0821A9108A108B10888EEC80E8F
:1002F00083E0D81EE11CF11C81149104A104B10417
:1003000029F7FF90EF90DF90CF90BF90AF909F9034
:100310008F900895AF92BF92CF92DF92EF92FF92AB
:100320000F931F93CF93DF936C017B018B01040F1D
:10033000151FEB015E01AE18BF08C017D10759F0B9
:100340006991D601ED91FC910190F081E02DC601FB
:100350000995892B79F7C501DF91CF911F910F91F5
:10036000FF90EF90DF90CF90BF90AF900895FC0189
:10037000538D448D252F30E0842F90E0821B930B0A
:10038000541710F0CF96089501970895FC01918DB0
:10039000828D981761F0A28DAE0FBF2FB11D5D96B3
:1003A0008C91928D9F5F9F73928F90E008958FEF55
:1003B0009FEF0895FC01918D828D981731F0828D09
:1003C000E80FF11D858D90E008958FEF9FEF089560
:1003D000FC01918D228D892F90E0805C9F4F821BC4
:1003E00091098F73992708958BE591E00E94E801A8
:1003F00021E0892B09F420E0822F089580E090E02D
:10040000892B29F00E94F40181110C9400000895B9
:10041000FC01A48DA80FB92FB11DA35ABF4F2C9179
:10042000848D90E001968F739927848FA689B78970
:100430002C93A089B1898C91837080648C93938D67
:10044000848D981306C00288F389E02D80818F7D0A
:1004500080830895EF92FF920F931F93CF93DF93C2
:10046000EC0181E0888F9B8D8C8D98131AC0E889F0
:10047000F989808185FF15C09FB7F894EE89FF89BF
:100480006083E889F98980818370806480839FBF5D
:1004900081E090E0DF91CF911F910F91FF90EF905D
:1004A0000895F62E0B8D10E00F5F1F4F0F7311276D
:1004B000E02E8C8D8E110CC00FB607FCFACFE889A8
:1004C000F989808185FFF5CFCE010E940802F1CF26
:1004D000EB8DEC0FFD2FF11DE35AFF4FF0829FB71C
:1004E000F8940B8FEA89FB8980818062CFCFCF930C
:1004F000DF93EC01888D8823B9F0AA89BB89E8894C
:10050000F9898C9185FD03C0808186FD0DC00FB6F1
:1005100007FCF7CF8C9185FFF2CF808185FFEDCF6F
:10052000CE010E940802E9CFDF91CF91089508958E
:1005300090E080E00895FB0101900020E9F73197F9
:10054000AF01461B570BDC01ED91FC910280F3815A
:10055000E02D09948F929F92AF92BF92EF92FF92FB
:100560000F931F93CF93DF93CDB7DEB7A1970FB64D
:10057000F894DEBF0FBECDBF7C01FA01CB0119A2FA
:10058000223008F42AE08E010F5D1F4F822E912C3D
:10059000B12CA12CBF01A50194010E946407F901AF
:1005A000CA016A300CF5605DD8016E938D01232B72
:1005B000242B252B79F790E080E0109721F0BD01E6
:1005C000C7010E949B02A1960FB6F894DEBF0FBE32
:1005D000CDBFDF91CF911F910F91FF90EF90BF9012
:1005E000AF909F908F900895695CDECF2F923F92DD
:1005F0004F925F926F927F928F929F92AF92BF9233
:10060000CF92DF92EF92FF921F93CF93DF93EC0193
:100610006A017B01722EAB019601CB01B6010E94EB
:10062000130A6EE171E0811126C046015701E8947A
:10063000B7F82FEF3FEF4FE75FE7C501B4010E9426
:10064000130A81110CC02FEF3FEF4FE75FE7C501A1
:10065000B4010E94F90762E271E0181664F02FEF0E
:100660003FEF4FE75FE4C701B6010E94510918163A
:10067000B4F466E271E0CE01DF91CF911F91FF905B
:10068000EF90DF90CF90BF90AF909F908F907F9032
:100690006F905F904F903F902F900C949B022FEFA4
:1006A0003FEF4FE75FECC701B6010E94F90787FDF6
:1006B000E0CF20E030E0A901C701B6010E94F907B0
:1006C000312C212C87FF0DC0E881F9810190F08148
:1006D000E02D6DE2CE0109951C01F7FAF094F7F8D0
:1006E000F09410E060E070E080E09FE3711641F06C
:1006F00020E030E040E251E40E94FE071F5FF6CFA9
:10070000A70196010E948D072B013C010E947008F1
:100710004B015C012AE0BC01A401CE010E94AA02A7
:100720007C01E20CF31C1123E1F1C501B4010E942C
:100730009F089B01AC01C301B2010E948C074B01D1
:100740005C01E881F9810190F081E02D6EE2CE013B
:100750000995E80EF91E115020F120E030E040E24A
:1007600051E4C501B4010E9456092B013C010E94CD
:1007700070084B01B12CA12C2AE0B501A401CE01D7
:100780000E94AA02E80EF91EC501B4010E949F084A
:100790009B01AC01C301B2010E948C074B015C01BB
:1007A000DACFC701DF91CF911F91FF90EF90DF90DB
:1007B000CF90BF90AF909F908F907F906F905F9001
:1007C0004F903F902F900895CF93DF93EC0160E01E
:1007D0008E810E94E70061E08E810E94E70060E068
:1007E0008E810E94E7008BE891E00197F1F7DF919D
:1007F000CF910895CF92DF92EF92FF920F931F93C4
:10080000CF93DF936C017C0187E0E80EF11CD0E010
:10081000C0E0062F10E0B8010C2E02C07595679558
:100820000A94E2F76170F70181917F010E94E7006D
:100830002196C430D10579F7C601DF91CF911F9180
:100840000F91FF90EF90DF90CF900C94E403CF9244
:10085000DF92EF92FF920F931F93CF93DF93EC0100
:10086000F62E642F8C810E94E7008D818F3F19F056
:1008700060E00E94E7000F2D10E08F8584FF25C007
:100880006E0187E0C80ED11CF12CE12CB8010E2CB2
:1008900002C0759567950A94E2F76170F60181913F
:1008A0006F010E94E700FFEFEF1AFF0A88E0E816E9
:1008B000F10461F7CE01DF91CF911F910F91FF906D
:1008C000EF90DF90CF900C94E403B80184E075952D
:1008D00067958A95E1F7CE010E94FA036F2DCE014C
:1008E000DF91CF911F910F91FF90EF90DF90CF900C
:1008F0000C94FA0340E0682F88EF91E00C942704F1
:1009000081E00E947A048BE39FE10197F1F708955B
:10091000CF93DF93823029F49091070298609093EF
:10092000070280930B0210920C0280E480930D0268
:1009300080E180930E0280E580930F028091FC019C
:100940000E94C8008091FD018F3F11F00E94C800F5
:100950008091FE010E94C800C8EFD1E09E01285F8F
:1009600031408091070284FD0AC084E090E0219626
:10097000281739073CF48E810E94C800EFCF88E029
:1009800090E0F5CF8BE39DE00197F1F760E0809177
:10099000FC010E94E70060E08091FE010E94E700F8
:1009A0008091FD018F3F19F060E00E94E700809187
:1009B000070284FD34C063E088EF91E00E94FA03EF
:1009C000CBE4D6E4CE010197F1F763E088EF91E044
:1009D0000E94FA032197F1F763E088EF91E00E940B
:1009E000FA0383E592E00197F1F762E088EF91E086
:1009F0000E94FA038091070280620E947A0484E0D8
:100A0000809308028CE00E947A040E94800482E0B5
:100A10008093090286E0DF91CF910C947A04806282
:100A20000E947A048BE496E40197F1F78091070223
:100A300080620E947A0483E592E00197F1F7809149
:100A4000070280620E947A04D5CFE0910B02E23067
:100A500040F4E150F0E0E850FE4F848980680C9447
:100A60007A04E1E0F7CF41E00E94270481E090E0C2
:100A700008951F920F920FB60F9211242F933F9358
:100A80008F939F93AF93BF938091530190915401A3
:100A9000A0915501B09156013091520123E0230FEE
:100AA0002D3758F50196A11DB11D20935201809359
:100AB000530190935401A0935501B0935601809136
:100AC000570190915801A0915901B0915A01019696
:100AD000A11DB11D8093570190935801A093590116
:100AE000B0935A01BF91AF919F918F913F912F91F8
:100AF0000F900FBE0F901F90189526E8230F0296B7
:100B0000A11DB11DD2CF1F920F920FB60F921124CB
:100B10002F933F934F935F936F937F938F939F9305
:100B2000AF93BF93EF93FF938BE591E00E94080290
:100B3000FF91EF91BF91AF919F918F917F916F91B5
:100B40005F914F913F912F910F900FBE0F901F908B
:100B500018951F920F920FB60F9211242F938F9317
:100B60009F93EF93FF93E0916B01F0916C01808173
:100B7000E0917101F091720182FD1BC09081809122
:100B800074018F5F8F7320917501821741F0E0919E
:100B90007401F0E0E55AFE4F958F80937401FF9148
:100BA000EF919F918F912F910F900FBE0F901F90FB
:100BB00018958081F4CFEBE5F1E01382128288EE84
:100BC00093E0A0E0B0E084839583A683B78384E0BC
:100BD00091E09183808385EC90E09587848784EC15
:100BE00090E09787868780EC90E0918B808B81ECFA
:100BF00090E0938B828B82EC90E0958B848B86ECDB
:100C000090E0978B868B118E128E138E148EE8EFE8
:100C1000F1E01382128286E191E0918380838CE07F
:100C200084838FEF85838BE0868385E0878384E0F0
:100C3000808783E0818782E0828713861486158609
:100C40001686178681E00C948804789484B58260B7
:100C500084BD84B5816084BD85B5826085BD85B560
:100C6000816085BD80916E00816080936E001092DE
:100C70008100809181008260809381008091810059
:100C800081608093810080918000816080938000EA
:100C90008091B10084608093B1008091B000816048
:100CA0008093B00080917A00846080937A00809174
:100CB0007A00826080937A0080917A0081608093CC
:100CC0007A0080917A00806880937A001092C10047
:100CD00082E00E9488040E948004E0916B01F09100
:100CE0006C0182E08083E0916701F09168011082DD
:100CF000E0916901F0916A018FEC80831092730199
:100D0000E0916F01F091700186E08083E0916D01C8
:100D1000F0916E01808180618083E0916D01F0919E
:100D20006E01808188608083E0916D01F0916E0199
:100D3000808180688083E0916D01F0916E018081F7
:100D40008F7D80836AE271E088EF91E00E949B02D0
:100D50000E94250562E371E088EF91E00E949B020A
:100D60006CED75E080E090E00E9458010E948004E4
:100D70006EE371E088EF91E00E949B0283E4B82E5D
:100D800000E010E0B0927C0080917A008064809353
:100D90007A0080917A0086FDFCCF60917800709196
:100DA0007900072E000C880B990B0E94A10820E007
:100DB00030E040EA50E40E94560920E030EC4FE772
:100DC00054E40E94FE076B017C0120E030E040E427
:100DD00050E40E94C3092B013C0124E0B701A601A5
:100DE0008BE591E00E94F6026BE471E08BE591E007
:100DF0000E949B0264EF71E080E090E00E94580145
:100E00000E9425052EED31EC45E355E4C301B20106
:100E10000E9456092B013C01A7019601C701B601AA
:100E20000E94560922E234EC47E056E40E9456093B
:100E30009B01AC01C301B2010E948C072B013C0154
:100E400023E937E34CE056E4C701B6010E94560996
:100E50009B01AC01C301B2010E948D0729E237E971
:100E600044E455E40E948C07AB01BC0122E088EF0A
:100E700091E00E94F6026FED88EF91E00E94330549
:100E80006EE471E088EF91E00E949B0268EE73E0EF
:100E900080E090E00E9458010E942505C0E1D0E06A
:100EA00060E571E088EF91E00E949B022197C1F715
:100EB0000115110509F466CF0E94F401882309F495
:100EC00061CF0E9400005ECFA1E21A2EAA1BBB1BBD
:100ED000FD010DC0AA1FBB1FEE1FFF1FA217B30706
:100EE000E407F50720F0A21BB30BE40BF50B661F1C
:100EF000771F881F991F1A9469F7609570958095E0
:100F000090959B01AC01BD01CF010895EE0FFF1F2D
:100F10000590F491E02D09945058BB27AA270E9410
:100F2000A4070C9417090E94090938F00E941009BF
:100F300020F039F49F3F19F426F40C9406090EF4BE
:100F4000E095E7FB0C940009E92F0E94280958F36B
:100F5000BA17620773078407950720F079F4A6F59E
:100F60000C944A090EF4E0950B2EBA2FA02D0B011C
:100F7000B90190010C01CA01A0011124FF27591BDE
:100F800099F0593F50F4503E68F11A16F040A22FE4
:100F9000232F342F4427585FF3CF46953795279555
:100FA000A795F0405395C9F77EF41F16BA0B620B54
:100FB000730B840BBAF09150A1F0FF0FBB1F661F9B
:100FC000771F881FC2F70EC0BA0F621F731F841FDE
:100FD00048F4879577956795B795F7959E3F08F004
:100FE000B0CF9395880F08F09927EE0F97958795C6
:100FF00008950E94DC0808F481E008950E94120818
:101000000C9417090E94100958F00E94090940F039
:1010100029F45F3F29F00C94000951110C944B09FD
:101020000C9406090E94280968F39923B1F355230B
:1010300091F3951B550BBB27AA27621773078407EB
:1010400038F09F5F5F4F220F331F441FAA1FA9F381
:1010500035D00E2E3AF0E0E832D091505040E6956F
:10106000001CCAF72BD0FE2F29D0660F771F881FD0
:10107000BB1F261737074807AB07B0E809F0BB0BC3
:10108000802DBF01FF2793585F4F3AF09E3F5105D7
:1010900078F00C9400090C944B095F3FE4F3983E00
:1010A000D4F3869577956795B795F7959F5FC9F7C0
:1010B000880F911D9695879597F90895E1E0660F41
:1010C000771F881FBB1F621773078407BA0720F0BA
:1010D000621B730B840BBA0BEE1F88F7E095089523
:1010E0000E94300988F09F5798F0B92F9927B7517F
:1010F000B0F0E1F0660F771F881F991F1AF0BA95BC
:10110000C9F714C0B13091F00E944A09B1E00895C6
:101110000C944A09672F782F8827B85F39F0B93FB8
:10112000CCF3869577956795B395D9F73EF490956E
:101130008095709561957F4F8F4F9F4F0895E894EC
:1011400009C097FB3EF490958095709561957F4F0F
:101150008F4F9F4F9923A9F0F92F96E9BB279395BD
:10116000F695879577956795B795F111F8CFFAF4CD
:10117000BB0F11F460FF1BC06F5F7F4F8F4F9F4FFE
:1011800016C0882311F096E911C0772321F09EE85C
:10119000872F762F05C0662371F096E8862F70E0C2
:1011A00060E02AF09A95660F771F881FDAF7880F9C
:1011B0009695879597F90895990F0008550FAA0BF2
:1011C000E0E8FEEF16161706E807F907C0F012165A
:1011D0001306E407F50798F0621B730B840B950B5D
:1011E00039F40A2661F0232B242B252B21F40895B2
:1011F0000A2609F4A140A6958FEF811D811D08954F
:1012000097F99F6780E870E060E008959FEF80ECB9
:10121000089500240A94161617061806090608955C
:1012200000240A9412161306140605060895092EC2
:101230000394000C11F4882352F0BB0F40F4BF2B31
:1012400011F460FF04C06F5F7F4F8F4F9F4F089571
:1012500057FD9058440F551F59F05F3F71F0479567
:10126000880F97FB991F61F09F3F79F0879508954C
:10127000121613061406551FF2CF4695F1DF08C06B
:10128000161617061806991FF1CF86957105610588
:1012900008940895E894BB2766277727CB0197F930
:1012A00008950E94DC0808F48FEF08950E946909F0
:1012B0000C9417090E94090938F00E94100920F0C7
:1012C000952311F00C9400090C94060911240C9438
:1012D0004B090E94280970F3959FC1F3950F50E0C8
:1012E000551F629FF001729FBB27F00DB11D639FD8
:1012F000AA27F00DB11DAA1F649F6627B00DA11D7E
:10130000661F829F2227B00DA11D621F739FB00D23
:10131000A11D621F839FA00D611D221F749F332793
:10132000A00D611D231F849F600D211D822F762F2C
:101330006A2F11249F5750409AF0F1F088234AF009
:10134000EE0FFF1FBB1F661F771F881F9150504075
:10135000A9F79E3F510580F00C9400090C944B09AD
:101360005F3FE4F3983ED4F3869577956795B795FC
:10137000F795E7959F5FC1F7FE2B880F911D969516
:10138000879597F90895FA01EE0FFF1F3096210512
:101390003105A1F16115710561F48038BFE39B0748
:1013A00049F168949038810561F08038BFEF9B0760
:1013B00041F099234AF5FF3FE1053105210519F177
:1013C000E8940894E795D901AA2329F4AB2FBE2FFE
:1013D000F85FD0F310C0FF5F70F4A695E0F7F7391F
:1013E00050F019F0FF3A38F49F779F930DD00F908B
:1013F00007FC9058089546F00C94060960E070E0F0
:1014000080E89FE308954FE79F775F934F933F9363
:101410002F930E94C30A2F913F914F915F910E9499
:1014200056090C94200A0E94DC08880B990B089539
:1014300029F416F00C9400090C944A090C9406093E
:101440000E943009A8F39638A0F707F80F92E894A5
:101450002BE33AEA48EB5FE70E946C090F920F9288
:101460000F924DB75EB70F920E940B0BE8E6F0E0CB
:101470000E94520A4F915F91EF91FF91E595EE1F07
:10148000FF1F49F0FE57E0684427EE0F441FFA950E
:10149000E1F74195550B0E94850A0F9007FE0C94C9
:1014A000790A0895DF93CF931F930F93FF92EF92E2
:1014B000DF927B018C01689406C0DA2EEF010E9456
:1014C0006909FE01E894A5912591359145915591C1
:1014D000A6F3EF010E94A407FE019701A801DA9488
:1014E00069F7DF90EF90FF900F911F91CF91DF91FF
:1014F00008959B01AC0160E070E080E89FE30C94EC
:10150000FE070C9400090C943F0B0E943009D8F39D
:101510009923C9F3940F511DA3F39150504094F0B7
:1015200059F0882332F0660F771F881F9150504082
:10153000C1F79E3F51052CF7880F911D9695879511
:1015400097F908955F3FACF0983E9CF0BB278695D5
:1015500077956795B79508F4B1609395C1F7BB0F80
:1015600058F711F460FFE8CF6F5F7F4F8F4F9F4FA9
:10157000E3CF0C944B0916F00C943F0B0C94060926
:1015800068940C9400090E943009A8F39923C1F3D0
:10159000AEF3DF93CF931F930F93FF92C92FDD27F5
:1015A00088232AF02197660F771F881FDAF720E03B
:1015B00030E040E85FEB9FE3883920F0803E38F070
:1015C00021968F770E948D07E0E9F0E004C00E9429
:1015D0008D07EDEBF0E00E94520A8B01BE01EC0199
:1015E000FB2E6F5771097595771F880B990B0E9419
:1015F000A10828E132E741E35FE30E946909AF2DCA
:101600009801AE01FF900F911F91CF91DF910E9441
:10161000A4070C941709FA01DC01AA0FBB1F9B0158
:10162000AC01BF5728F4222733274427507820C025
:10163000B75190F4AB2F0024469537952795011CA0
:10164000A395D2F3002071F0220F331F441FB395EE
:10165000DAF30ED00C948C0761307105A0E88A078C
:10166000B94630F49B01AC0166277727882790782C
:10167000309621F0208331834283538308959F3F26
:1016800031F0915020F4879577956795B795880F3D
:0E169000911D9695879597F90895F894FFCFD0
:10169E00000000002A028A01B7017702E801C601A4
:1016AE00DA010000000033058A01980297026E618C
:1016BE006E00696E66006F766600446967697461D4
:1016CE006C00546865726D6F6D657465720054655B
:1016DE006D70657261747572653A000D0A00430093
:0216EE002000DA
:00000001FF
